{
	"contracts/SimpleBank.sol": {
		"SimpleBank": {
			"abi": [
				{
					"inputs": [],
					"stateMutability": "nonpayable",
					"type": "constructor"
				},
				{
					"anonymous": false,
					"inputs": [
						{
							"indexed": true,
							"internalType": "address",
							"name": "customer",
							"type": "address"
						},
						{
							"indexed": false,
							"internalType": "uint256",
							"name": "amount",
							"type": "uint256"
						}
					],
					"name": "Deposit",
					"type": "event"
				},
				{
					"anonymous": false,
					"inputs": [
						{
							"indexed": true,
							"internalType": "address",
							"name": "customer",
							"type": "address"
						},
						{
							"indexed": false,
							"internalType": "uint256",
							"name": "amount",
							"type": "uint256"
						}
					],
					"name": "LoanApproval",
					"type": "event"
				},
				{
					"anonymous": false,
					"inputs": [
						{
							"indexed": true,
							"internalType": "address",
							"name": "customer",
							"type": "address"
						},
						{
							"indexed": false,
							"internalType": "uint256",
							"name": "amount",
							"type": "uint256"
						}
					],
					"name": "LoanRequest",
					"type": "event"
				},
				{
					"anonymous": false,
					"inputs": [
						{
							"indexed": true,
							"internalType": "address",
							"name": "customer",
							"type": "address"
						}
					],
					"name": "Registration",
					"type": "event"
				},
				{
					"anonymous": false,
					"inputs": [
						{
							"indexed": true,
							"internalType": "address",
							"name": "customer",
							"type": "address"
						},
						{
							"indexed": false,
							"internalType": "uint256",
							"name": "amount",
							"type": "uint256"
						}
					],
					"name": "Withdrawal",
					"type": "event"
				},
				{
					"inputs": [],
					"name": "admin",
					"outputs": [
						{
							"internalType": "address",
							"name": "",
							"type": "address"
						}
					],
					"stateMutability": "view",
					"type": "function"
				},
				{
					"inputs": [
						{
							"internalType": "address",
							"name": "_customer",
							"type": "address"
						}
					],
					"name": "approveLoan",
					"outputs": [],
					"stateMutability": "nonpayable",
					"type": "function"
				},
				{
					"inputs": [
						{
							"internalType": "address",
							"name": "",
							"type": "address"
						}
					],
					"name": "customers",
					"outputs": [
						{
							"internalType": "bool",
							"name": "isRegistered",
							"type": "bool"
						},
						{
							"internalType": "uint256",
							"name": "balance",
							"type": "uint256"
						},
						{
							"internalType": "uint256",
							"name": "loanAmount",
							"type": "uint256"
						}
					],
					"stateMutability": "view",
					"type": "function"
				},
				{
					"inputs": [],
					"name": "depositMoney",
					"outputs": [],
					"stateMutability": "payable",
					"type": "function"
				},
				{
					"inputs": [
						{
							"internalType": "address",
							"name": "_customer",
							"type": "address"
						}
					],
					"name": "registerCustomer",
					"outputs": [],
					"stateMutability": "nonpayable",
					"type": "function"
				},
				{
					"inputs": [
						{
							"internalType": "uint256",
							"name": "_amount",
							"type": "uint256"
						}
					],
					"name": "requestLoan",
					"outputs": [],
					"stateMutability": "nonpayable",
					"type": "function"
				},
				{
					"inputs": [
						{
							"internalType": "uint256",
							"name": "_amount",
							"type": "uint256"
						}
					],
					"name": "withdrawMoney",
					"outputs": [],
					"stateMutability": "nonpayable",
					"type": "function"
				}
			],
			"devdoc": {
				"kind": "dev",
				"methods": {},
				"version": 1
			},
			"evm": {
				"assembly": "    /* \"contracts/SimpleBank.sol\":60:2571  contract SimpleBank {... */\n  mstore(0x40, 0x80)\n    /* \"contracts/SimpleBank.sol\":597:708  constructor() {... */\n  callvalue\n  dup1\n  iszero\n  tag_1\n  jumpi\n  0x00\n  dup1\n  revert\ntag_1:\n  pop\n    /* \"contracts/SimpleBank.sol\":690:700  msg.sender */\n  caller\n    /* \"contracts/SimpleBank.sol\":682:687  admin */\n  0x00\n  dup1\n    /* \"contracts/SimpleBank.sol\":682:700  admin = msg.sender */\n  0x0100\n  exp\n  dup2\n  sload\n  dup2\n  0xffffffffffffffffffffffffffffffffffffffff\n  mul\n  not\n  and\n  swap1\n  dup4\n  0xffffffffffffffffffffffffffffffffffffffff\n  and\n  mul\n  or\n  swap1\n  sstore\n  pop\n    /* \"contracts/SimpleBank.sol\":60:2571  contract SimpleBank {... */\n  dataSize(sub_0)\n  dup1\n  dataOffset(sub_0)\n  0x00\n  codecopy\n  0x00\n  return\nstop\n\nsub_0: assembly {\n        /* \"contracts/SimpleBank.sol\":60:2571  contract SimpleBank {... */\n      mstore(0x40, 0x80)\n      jumpi(tag_1, lt(calldatasize, 0x04))\n      shr(0xe0, calldataload(0x00))\n      dup1\n      0x7520320f\n      gt\n      tag_9\n      jumpi\n      dup1\n      0x7520320f\n      eq\n      tag_5\n      jumpi\n      dup1\n      0x8d5d3429\n      eq\n      tag_6\n      jumpi\n      dup1\n      0xac640361\n      eq\n      tag_7\n      jumpi\n      dup1\n      0xf851a440\n      eq\n      tag_8\n      jumpi\n      jump(tag_1)\n    tag_9:\n      dup1\n      0x16c05aa2\n      eq\n      tag_2\n      jumpi\n      dup1\n      0x336989ae\n      eq\n      tag_3\n      jumpi\n      dup1\n      0x54876921\n      eq\n      tag_4\n      jumpi\n    tag_1:\n      0x00\n      dup1\n      revert\n        /* \"contracts/SimpleBank.sol\":1314:1552  function depositMoney() public payable onlyRegistered {... */\n    tag_2:\n      tag_10\n      tag_11\n      jump\t// in\n    tag_10:\n      stop\n        /* \"contracts/SimpleBank.sol\":227:272  mapping(address => Customer) public customers */\n    tag_3:\n      callvalue\n      dup1\n      iszero\n      tag_12\n      jumpi\n      0x00\n      dup1\n      revert\n    tag_12:\n      pop\n      tag_13\n      0x04\n      dup1\n      calldatasize\n      sub\n      dup2\n      add\n      swap1\n      tag_14\n      swap2\n      swap1\n      tag_15\n      jump\t// in\n    tag_14:\n      tag_16\n      jump\t// in\n    tag_13:\n      mload(0x40)\n      tag_17\n      swap4\n      swap3\n      swap2\n      swap1\n      tag_18\n      jump\t// in\n    tag_17:\n      mload(0x40)\n      dup1\n      swap2\n      sub\n      swap1\n      return\n        /* \"contracts/SimpleBank.sol\":1597:1894  function withdrawMoney(uint _amount) public onlyRegistered {... */\n    tag_4:\n      callvalue\n      dup1\n      iszero\n      tag_19\n      jumpi\n      0x00\n      dup1\n      revert\n    tag_19:\n      pop\n      tag_20\n      0x04\n      dup1\n      calldatasize\n      sub\n      dup2\n      add\n      swap1\n      tag_21\n      swap2\n      swap1\n      tag_22\n      jump\t// in\n    tag_21:\n      tag_23\n      jump\t// in\n    tag_20:\n      stop\n        /* \"contracts/SimpleBank.sol\":1022:1270  function registerCustomer(address _customer) public onlyAdmin {... */\n    tag_5:\n      callvalue\n      dup1\n      iszero\n      tag_24\n      jumpi\n      0x00\n      dup1\n      revert\n    tag_24:\n      pop\n      tag_25\n      0x04\n      dup1\n      calldatasize\n      sub\n      dup2\n      add\n      swap1\n      tag_26\n      swap2\n      swap1\n      tag_15\n      jump\t// in\n    tag_26:\n      tag_27\n      jump\t// in\n    tag_25:\n      stop\n        /* \"contracts/SimpleBank.sol\":1939:2178  function requestLoan(uint _amount) public onlyRegistered {... */\n    tag_6:\n      callvalue\n      dup1\n      iszero\n      tag_28\n      jumpi\n      0x00\n      dup1\n      revert\n    tag_28:\n      pop\n      tag_29\n      0x04\n      dup1\n      calldatasize\n      sub\n      dup2\n      add\n      swap1\n      tag_30\n      swap2\n      swap1\n      tag_22\n      jump\t// in\n    tag_30:\n      tag_31\n      jump\t// in\n    tag_29:\n      stop\n        /* \"contracts/SimpleBank.sol\":2217:2568  function approveLoan(address _customer) public onlyAdmin {... */\n    tag_7:\n      callvalue\n      dup1\n      iszero\n      tag_32\n      jumpi\n      0x00\n      dup1\n      revert\n    tag_32:\n      pop\n      tag_33\n      0x04\n      dup1\n      calldatasize\n      sub\n      dup2\n      add\n      swap1\n      tag_34\n      swap2\n      swap1\n      tag_15\n      jump\t// in\n    tag_34:\n      tag_35\n      jump\t// in\n    tag_33:\n      stop\n        /* \"contracts/SimpleBank.sol\":87:107  address public admin */\n    tag_8:\n      callvalue\n      dup1\n      iszero\n      tag_36\n      jumpi\n      0x00\n      dup1\n      revert\n    tag_36:\n      pop\n      tag_37\n      tag_38\n      jump\t// in\n    tag_37:\n      mload(0x40)\n      tag_39\n      swap2\n      swap1\n      tag_40\n      jump\t// in\n    tag_39:\n      mload(0x40)\n      dup1\n      swap2\n      sub\n      swap1\n      return\n        /* \"contracts/SimpleBank.sol\":1314:1552  function depositMoney() public payable onlyRegistered {... */\n    tag_11:\n        /* \"contracts/SimpleBank.sol\":887:896  customers */\n      0x01\n        /* \"contracts/SimpleBank.sol\":887:908  customers[msg.sender] */\n      0x00\n        /* \"contracts/SimpleBank.sol\":897:907  msg.sender */\n      caller\n        /* \"contracts/SimpleBank.sol\":887:908  customers[msg.sender] */\n      0xffffffffffffffffffffffffffffffffffffffff\n      and\n      0xffffffffffffffffffffffffffffffffffffffff\n      and\n      dup2\n      mstore\n      0x20\n      add\n      swap1\n      dup2\n      mstore\n      0x20\n      add\n      0x00\n      keccak256\n        /* \"contracts/SimpleBank.sol\":887:921  customers[msg.sender].isRegistered */\n      0x00\n      add\n      0x00\n      swap1\n      sload\n      swap1\n      0x0100\n      exp\n      swap1\n      div\n      0xff\n      and\n        /* \"contracts/SimpleBank.sol\":879:952  require(customers[msg.sender].isRegistered, \"Customer is not registered\") */\n      tag_42\n      jumpi\n      mload(0x40)\n      0x08c379a000000000000000000000000000000000000000000000000000000000\n      dup2\n      mstore\n      0x04\n      add\n      tag_43\n      swap1\n      tag_44\n      jump\t// in\n    tag_43:\n      mload(0x40)\n      dup1\n      swap2\n      sub\n      swap1\n      revert\n    tag_42:\n        /* \"contracts/SimpleBank.sol\":1399:1400  0 */\n      0x00\n        /* \"contracts/SimpleBank.sol\":1387:1396  msg.value */\n      callvalue\n        /* \"contracts/SimpleBank.sol\":1387:1400  msg.value > 0 */\n      gt\n        /* \"contracts/SimpleBank.sol\":1379:1445  require(msg.value > 0, \"Deposit amount must be greater than zero\") */\n      tag_46\n      jumpi\n      mload(0x40)\n      0x08c379a000000000000000000000000000000000000000000000000000000000\n      dup2\n      mstore\n      0x04\n      add\n      tag_47\n      swap1\n      tag_48\n      jump\t// in\n    tag_47:\n      mload(0x40)\n      dup1\n      swap2\n      sub\n      swap1\n      revert\n    tag_46:\n        /* \"contracts/SimpleBank.sol\":1489:1498  msg.value */\n      callvalue\n        /* \"contracts/SimpleBank.sol\":1456:1465  customers */\n      0x01\n        /* \"contracts/SimpleBank.sol\":1456:1477  customers[msg.sender] */\n      0x00\n        /* \"contracts/SimpleBank.sol\":1466:1476  msg.sender */\n      caller\n        /* \"contracts/SimpleBank.sol\":1456:1477  customers[msg.sender] */\n      0xffffffffffffffffffffffffffffffffffffffff\n      and\n      0xffffffffffffffffffffffffffffffffffffffff\n      and\n      dup2\n      mstore\n      0x20\n      add\n      swap1\n      dup2\n      mstore\n      0x20\n      add\n      0x00\n      keccak256\n        /* \"contracts/SimpleBank.sol\":1456:1485  customers[msg.sender].balance */\n      0x01\n      add\n      0x00\n        /* \"contracts/SimpleBank.sol\":1456:1498  customers[msg.sender].balance += msg.value */\n      dup3\n      dup3\n      sload\n      tag_49\n      swap2\n      swap1\n      tag_50\n      jump\t// in\n    tag_49:\n      swap3\n      pop\n      pop\n      dup2\n      swap1\n      sstore\n      pop\n        /* \"contracts/SimpleBank.sol\":1522:1532  msg.sender */\n      caller\n        /* \"contracts/SimpleBank.sol\":1514:1544  Deposit(msg.sender, msg.value) */\n      0xffffffffffffffffffffffffffffffffffffffff\n      and\n      0xe1fffcc4923d04b559f4d29a8bfc6cda04eb5b0d3c460751c2402c5c5cc9109c\n        /* \"contracts/SimpleBank.sol\":1534:1543  msg.value */\n      callvalue\n        /* \"contracts/SimpleBank.sol\":1514:1544  Deposit(msg.sender, msg.value) */\n      mload(0x40)\n      tag_51\n      swap2\n      swap1\n      tag_52\n      jump\t// in\n    tag_51:\n      mload(0x40)\n      dup1\n      swap2\n      sub\n      swap1\n      log2\n        /* \"contracts/SimpleBank.sol\":1314:1552  function depositMoney() public payable onlyRegistered {... */\n      jump\t// out\n        /* \"contracts/SimpleBank.sol\":227:272  mapping(address => Customer) public customers */\n    tag_16:\n      mstore(0x20, 0x01)\n      dup1\n      0x00\n      mstore\n      keccak256(0x00, 0x40)\n      0x00\n      swap2\n      pop\n      swap1\n      pop\n      dup1\n      0x00\n      add\n      0x00\n      swap1\n      sload\n      swap1\n      0x0100\n      exp\n      swap1\n      div\n      0xff\n      and\n      swap1\n      dup1\n      0x01\n      add\n      sload\n      swap1\n      dup1\n      0x02\n      add\n      sload\n      swap1\n      pop\n      dup4\n      jump\t// out\n        /* \"contracts/SimpleBank.sol\":1597:1894  function withdrawMoney(uint _amount) public onlyRegistered {... */\n    tag_23:\n        /* \"contracts/SimpleBank.sol\":887:896  customers */\n      0x01\n        /* \"contracts/SimpleBank.sol\":887:908  customers[msg.sender] */\n      0x00\n        /* \"contracts/SimpleBank.sol\":897:907  msg.sender */\n      caller\n        /* \"contracts/SimpleBank.sol\":887:908  customers[msg.sender] */\n      0xffffffffffffffffffffffffffffffffffffffff\n      and\n      0xffffffffffffffffffffffffffffffffffffffff\n      and\n      dup2\n      mstore\n      0x20\n      add\n      swap1\n      dup2\n      mstore\n      0x20\n      add\n      0x00\n      keccak256\n        /* \"contracts/SimpleBank.sol\":887:921  customers[msg.sender].isRegistered */\n      0x00\n      add\n      0x00\n      swap1\n      sload\n      swap1\n      0x0100\n      exp\n      swap1\n      div\n      0xff\n      and\n        /* \"contracts/SimpleBank.sol\":879:952  require(customers[msg.sender].isRegistered, \"Customer is not registered\") */\n      tag_54\n      jumpi\n      mload(0x40)\n      0x08c379a000000000000000000000000000000000000000000000000000000000\n      dup2\n      mstore\n      0x04\n      add\n      tag_55\n      swap1\n      tag_44\n      jump\t// in\n    tag_55:\n      mload(0x40)\n      dup1\n      swap2\n      sub\n      swap1\n      revert\n    tag_54:\n        /* \"contracts/SimpleBank.sol\":1686:1695  customers */\n      0x01\n        /* \"contracts/SimpleBank.sol\":1686:1707  customers[msg.sender] */\n      0x00\n        /* \"contracts/SimpleBank.sol\":1696:1706  msg.sender */\n      caller\n        /* \"contracts/SimpleBank.sol\":1686:1707  customers[msg.sender] */\n      0xffffffffffffffffffffffffffffffffffffffff\n      and\n      0xffffffffffffffffffffffffffffffffffffffff\n      and\n      dup2\n      mstore\n      0x20\n      add\n      swap1\n      dup2\n      mstore\n      0x20\n      add\n      0x00\n      keccak256\n        /* \"contracts/SimpleBank.sol\":1686:1715  customers[msg.sender].balance */\n      0x01\n      add\n      sload\n        /* \"contracts/SimpleBank.sol\":1675:1682  _amount */\n      dup2\n        /* \"contracts/SimpleBank.sol\":1675:1715  _amount <= customers[msg.sender].balance */\n      gt\n      iszero\n        /* \"contracts/SimpleBank.sol\":1667:1740  require(_amount <= customers[msg.sender].balance, \"Insufficient balance\") */\n      tag_57\n      jumpi\n      mload(0x40)\n      0x08c379a000000000000000000000000000000000000000000000000000000000\n      dup2\n      mstore\n      0x04\n      add\n      tag_58\n      swap1\n      tag_59\n      jump\t// in\n    tag_58:\n      mload(0x40)\n      dup1\n      swap2\n      sub\n      swap1\n      revert\n    tag_57:\n        /* \"contracts/SimpleBank.sol\":1759:1769  msg.sender */\n      caller\n        /* \"contracts/SimpleBank.sol\":1751:1779  payable(msg.sender).transfer */\n      0xffffffffffffffffffffffffffffffffffffffff\n      and\n        /* \"contracts/SimpleBank.sol\":1751:1788  payable(msg.sender).transfer(_amount) */\n      0x08fc\n        /* \"contracts/SimpleBank.sol\":1780:1787  _amount */\n      dup3\n        /* \"contracts/SimpleBank.sol\":1751:1788  payable(msg.sender).transfer(_amount) */\n      swap1\n      dup2\n      iszero\n      mul\n      swap1\n      mload(0x40)\n      0x00\n      mload(0x40)\n      dup1\n      dup4\n      sub\n      dup2\n      dup6\n      dup9\n      dup9\n      call\n      swap4\n      pop\n      pop\n      pop\n      pop\n      iszero\n      dup1\n      iszero\n      tag_61\n      jumpi\n      returndatasize\n      0x00\n      dup1\n      returndatacopy\n      revert(0x00, returndatasize)\n    tag_61:\n      pop\n        /* \"contracts/SimpleBank.sol\":1832:1839  _amount */\n      dup1\n        /* \"contracts/SimpleBank.sol\":1799:1808  customers */\n      0x01\n        /* \"contracts/SimpleBank.sol\":1799:1820  customers[msg.sender] */\n      0x00\n        /* \"contracts/SimpleBank.sol\":1809:1819  msg.sender */\n      caller\n        /* \"contracts/SimpleBank.sol\":1799:1820  customers[msg.sender] */\n      0xffffffffffffffffffffffffffffffffffffffff\n      and\n      0xffffffffffffffffffffffffffffffffffffffff\n      and\n      dup2\n      mstore\n      0x20\n      add\n      swap1\n      dup2\n      mstore\n      0x20\n      add\n      0x00\n      keccak256\n        /* \"contracts/SimpleBank.sol\":1799:1828  customers[msg.sender].balance */\n      0x01\n      add\n      0x00\n        /* \"contracts/SimpleBank.sol\":1799:1839  customers[msg.sender].balance -= _amount */\n      dup3\n      dup3\n      sload\n      tag_62\n      swap2\n      swap1\n      tag_63\n      jump\t// in\n    tag_62:\n      swap3\n      pop\n      pop\n      dup2\n      swap1\n      sstore\n      pop\n        /* \"contracts/SimpleBank.sol\":1866:1876  msg.sender */\n      caller\n        /* \"contracts/SimpleBank.sol\":1855:1886  Withdrawal(msg.sender, _amount) */\n      0xffffffffffffffffffffffffffffffffffffffff\n      and\n      0x7fcf532c15f0a6db0bd6d0e038bea71d30d808c7d98cb3bf7268a95bf5081b65\n        /* \"contracts/SimpleBank.sol\":1878:1885  _amount */\n      dup3\n        /* \"contracts/SimpleBank.sol\":1855:1886  Withdrawal(msg.sender, _amount) */\n      mload(0x40)\n      tag_64\n      swap2\n      swap1\n      tag_52\n      jump\t// in\n    tag_64:\n      mload(0x40)\n      dup1\n      swap2\n      sub\n      swap1\n      log2\n        /* \"contracts/SimpleBank.sol\":1597:1894  function withdrawMoney(uint _amount) public onlyRegistered {... */\n      pop\n      jump\t// out\n        /* \"contracts/SimpleBank.sol\":1022:1270  function registerCustomer(address _customer) public onlyAdmin {... */\n    tag_27:\n        /* \"contracts/SimpleBank.sol\":770:775  admin */\n      0x00\n      dup1\n      sload\n      swap1\n      0x0100\n      exp\n      swap1\n      div\n      0xffffffffffffffffffffffffffffffffffffffff\n      and\n        /* \"contracts/SimpleBank.sol\":756:775  msg.sender == admin */\n      0xffffffffffffffffffffffffffffffffffffffff\n      and\n        /* \"contracts/SimpleBank.sol\":756:766  msg.sender */\n      caller\n        /* \"contracts/SimpleBank.sol\":756:775  msg.sender == admin */\n      0xffffffffffffffffffffffffffffffffffffffff\n      and\n      eq\n        /* \"contracts/SimpleBank.sol\":748:814  require(msg.sender == admin, \"Only admin can perform this action\") */\n      tag_66\n      jumpi\n      mload(0x40)\n      0x08c379a000000000000000000000000000000000000000000000000000000000\n      dup2\n      mstore\n      0x04\n      add\n      tag_67\n      swap1\n      tag_68\n      jump\t// in\n    tag_67:\n      mload(0x40)\n      dup1\n      swap2\n      sub\n      swap1\n      revert\n    tag_66:\n        /* \"contracts/SimpleBank.sol\":1104:1113  customers */\n      0x01\n        /* \"contracts/SimpleBank.sol\":1104:1124  customers[_customer] */\n      0x00\n        /* \"contracts/SimpleBank.sol\":1114:1123  _customer */\n      dup3\n        /* \"contracts/SimpleBank.sol\":1104:1124  customers[_customer] */\n      0xffffffffffffffffffffffffffffffffffffffff\n      and\n      0xffffffffffffffffffffffffffffffffffffffff\n      and\n      dup2\n      mstore\n      0x20\n      add\n      swap1\n      dup2\n      mstore\n      0x20\n      add\n      0x00\n      keccak256\n        /* \"contracts/SimpleBank.sol\":1104:1137  customers[_customer].isRegistered */\n      0x00\n      add\n      0x00\n      swap1\n      sload\n      swap1\n      0x0100\n      exp\n      swap1\n      div\n      0xff\n      and\n        /* \"contracts/SimpleBank.sol\":1103:1137  !customers[_customer].isRegistered */\n      iszero\n        /* \"contracts/SimpleBank.sol\":1095:1169  require(!customers[_customer].isRegistered, \"Customer already registered\") */\n      tag_70\n      jumpi\n      mload(0x40)\n      0x08c379a000000000000000000000000000000000000000000000000000000000\n      dup2\n      mstore\n      0x04\n      add\n      tag_71\n      swap1\n      tag_72\n      jump\t// in\n    tag_71:\n      mload(0x40)\n      dup1\n      swap2\n      sub\n      swap1\n      revert\n    tag_70:\n        /* \"contracts/SimpleBank.sol\":1203:1223  Customer(true, 0, 0) */\n      mload(0x40)\n      dup1\n      0x60\n      add\n      0x40\n      mstore\n      dup1\n        /* \"contracts/SimpleBank.sol\":1212:1216  true */\n      0x01\n        /* \"contracts/SimpleBank.sol\":1203:1223  Customer(true, 0, 0) */\n      iszero\n      iszero\n      dup2\n      mstore\n      0x20\n      add\n        /* \"contracts/SimpleBank.sol\":1218:1219  0 */\n      0x00\n        /* \"contracts/SimpleBank.sol\":1203:1223  Customer(true, 0, 0) */\n      dup2\n      mstore\n      0x20\n      add\n        /* \"contracts/SimpleBank.sol\":1221:1222  0 */\n      0x00\n        /* \"contracts/SimpleBank.sol\":1203:1223  Customer(true, 0, 0) */\n      dup2\n      mstore\n      pop\n        /* \"contracts/SimpleBank.sol\":1180:1189  customers */\n      0x01\n        /* \"contracts/SimpleBank.sol\":1180:1200  customers[_customer] */\n      0x00\n        /* \"contracts/SimpleBank.sol\":1190:1199  _customer */\n      dup4\n        /* \"contracts/SimpleBank.sol\":1180:1200  customers[_customer] */\n      0xffffffffffffffffffffffffffffffffffffffff\n      and\n      0xffffffffffffffffffffffffffffffffffffffff\n      and\n      dup2\n      mstore\n      0x20\n      add\n      swap1\n      dup2\n      mstore\n      0x20\n      add\n      0x00\n      keccak256\n        /* \"contracts/SimpleBank.sol\":1180:1223  customers[_customer] = Customer(true, 0, 0) */\n      0x00\n      dup3\n      add\n      mload\n      dup2\n      0x00\n      add\n      exp(0x0100, 0x00)\n      dup2\n      sload\n      dup2\n      0xff\n      mul\n      not\n      and\n      swap1\n      dup4\n      iszero\n      iszero\n      mul\n      or\n      swap1\n      sstore\n      pop\n      0x20\n      dup3\n      add\n      mload\n      dup2\n      0x01\n      add\n      sstore\n      0x40\n      dup3\n      add\n      mload\n      dup2\n      0x02\n      add\n      sstore\n      swap1\n      pop\n      pop\n        /* \"contracts/SimpleBank.sol\":1252:1261  _customer */\n      dup1\n        /* \"contracts/SimpleBank.sol\":1239:1262  Registration(_customer) */\n      0xffffffffffffffffffffffffffffffffffffffff\n      and\n      0x478f5152d8fc568db3f8de9fb402fd9d98a1a7541ecfe434e59cf574fbfc5524\n      mload(0x40)\n      mload(0x40)\n      dup1\n      swap2\n      sub\n      swap1\n      log2\n        /* \"contracts/SimpleBank.sol\":1022:1270  function registerCustomer(address _customer) public onlyAdmin {... */\n      pop\n      jump\t// out\n        /* \"contracts/SimpleBank.sol\":1939:2178  function requestLoan(uint _amount) public onlyRegistered {... */\n    tag_31:\n        /* \"contracts/SimpleBank.sol\":887:896  customers */\n      0x01\n        /* \"contracts/SimpleBank.sol\":887:908  customers[msg.sender] */\n      0x00\n        /* \"contracts/SimpleBank.sol\":897:907  msg.sender */\n      caller\n        /* \"contracts/SimpleBank.sol\":887:908  customers[msg.sender] */\n      0xffffffffffffffffffffffffffffffffffffffff\n      and\n      0xffffffffffffffffffffffffffffffffffffffff\n      and\n      dup2\n      mstore\n      0x20\n      add\n      swap1\n      dup2\n      mstore\n      0x20\n      add\n      0x00\n      keccak256\n        /* \"contracts/SimpleBank.sol\":887:921  customers[msg.sender].isRegistered */\n      0x00\n      add\n      0x00\n      swap1\n      sload\n      swap1\n      0x0100\n      exp\n      swap1\n      div\n      0xff\n      and\n        /* \"contracts/SimpleBank.sol\":879:952  require(customers[msg.sender].isRegistered, \"Customer is not registered\") */\n      tag_74\n      jumpi\n      mload(0x40)\n      0x08c379a000000000000000000000000000000000000000000000000000000000\n      dup2\n      mstore\n      0x04\n      add\n      tag_75\n      swap1\n      tag_44\n      jump\t// in\n    tag_75:\n      mload(0x40)\n      dup1\n      swap2\n      sub\n      swap1\n      revert\n    tag_74:\n        /* \"contracts/SimpleBank.sol\":2025:2026  0 */\n      0x00\n        /* \"contracts/SimpleBank.sol\":2015:2022  _amount */\n      dup2\n        /* \"contracts/SimpleBank.sol\":2015:2026  _amount > 0 */\n      gt\n        /* \"contracts/SimpleBank.sol\":2007:2068  require(_amount > 0, \"Loan amount must be greater than zero\") */\n      tag_77\n      jumpi\n      mload(0x40)\n      0x08c379a000000000000000000000000000000000000000000000000000000000\n      dup2\n      mstore\n      0x04\n      add\n      tag_78\n      swap1\n      tag_79\n      jump\t// in\n    tag_78:\n      mload(0x40)\n      dup1\n      swap2\n      sub\n      swap1\n      revert\n    tag_77:\n        /* \"contracts/SimpleBank.sol\":2115:2122  _amount */\n      dup1\n        /* \"contracts/SimpleBank.sol\":2079:2088  customers */\n      0x01\n        /* \"contracts/SimpleBank.sol\":2079:2100  customers[msg.sender] */\n      0x00\n        /* \"contracts/SimpleBank.sol\":2089:2099  msg.sender */\n      caller\n        /* \"contracts/SimpleBank.sol\":2079:2100  customers[msg.sender] */\n      0xffffffffffffffffffffffffffffffffffffffff\n      and\n      0xffffffffffffffffffffffffffffffffffffffff\n      and\n      dup2\n      mstore\n      0x20\n      add\n      swap1\n      dup2\n      mstore\n      0x20\n      add\n      0x00\n      keccak256\n        /* \"contracts/SimpleBank.sol\":2079:2111  customers[msg.sender].loanAmount */\n      0x02\n      add\n      0x00\n        /* \"contracts/SimpleBank.sol\":2079:2122  customers[msg.sender].loanAmount += _amount */\n      dup3\n      dup3\n      sload\n      tag_80\n      swap2\n      swap1\n      tag_50\n      jump\t// in\n    tag_80:\n      swap3\n      pop\n      pop\n      dup2\n      swap1\n      sstore\n      pop\n        /* \"contracts/SimpleBank.sol\":2150:2160  msg.sender */\n      caller\n        /* \"contracts/SimpleBank.sol\":2138:2170  LoanRequest(msg.sender, _amount) */\n      0xffffffffffffffffffffffffffffffffffffffff\n      and\n      0xada4da57651fc83f009c1d1bb3d065605e9856f3f0e6d9877d6dcfe00b039340\n        /* \"contracts/SimpleBank.sol\":2162:2169  _amount */\n      dup3\n        /* \"contracts/SimpleBank.sol\":2138:2170  LoanRequest(msg.sender, _amount) */\n      mload(0x40)\n      tag_81\n      swap2\n      swap1\n      tag_52\n      jump\t// in\n    tag_81:\n      mload(0x40)\n      dup1\n      swap2\n      sub\n      swap1\n      log2\n        /* \"contracts/SimpleBank.sol\":1939:2178  function requestLoan(uint _amount) public onlyRegistered {... */\n      pop\n      jump\t// out\n        /* \"contracts/SimpleBank.sol\":2217:2568  function approveLoan(address _customer) public onlyAdmin {... */\n    tag_35:\n        /* \"contracts/SimpleBank.sol\":770:775  admin */\n      0x00\n      dup1\n      sload\n      swap1\n      0x0100\n      exp\n      swap1\n      div\n      0xffffffffffffffffffffffffffffffffffffffff\n      and\n        /* \"contracts/SimpleBank.sol\":756:775  msg.sender == admin */\n      0xffffffffffffffffffffffffffffffffffffffff\n      and\n        /* \"contracts/SimpleBank.sol\":756:766  msg.sender */\n      caller\n        /* \"contracts/SimpleBank.sol\":756:775  msg.sender == admin */\n      0xffffffffffffffffffffffffffffffffffffffff\n      and\n      eq\n        /* \"contracts/SimpleBank.sol\":748:814  require(msg.sender == admin, \"Only admin can perform this action\") */\n      tag_83\n      jumpi\n      mload(0x40)\n      0x08c379a000000000000000000000000000000000000000000000000000000000\n      dup2\n      mstore\n      0x04\n      add\n      tag_84\n      swap1\n      tag_68\n      jump\t// in\n    tag_84:\n      mload(0x40)\n      dup1\n      swap2\n      sub\n      swap1\n      revert\n    tag_83:\n        /* \"contracts/SimpleBank.sol\":2327:2328  0 */\n      0x00\n        /* \"contracts/SimpleBank.sol\":2293:2302  customers */\n      0x01\n        /* \"contracts/SimpleBank.sol\":2293:2313  customers[_customer] */\n      0x00\n        /* \"contracts/SimpleBank.sol\":2303:2312  _customer */\n      dup4\n        /* \"contracts/SimpleBank.sol\":2293:2313  customers[_customer] */\n      0xffffffffffffffffffffffffffffffffffffffff\n      and\n      0xffffffffffffffffffffffffffffffffffffffff\n      and\n      dup2\n      mstore\n      0x20\n      add\n      swap1\n      dup2\n      mstore\n      0x20\n      add\n      0x00\n      keccak256\n        /* \"contracts/SimpleBank.sol\":2293:2324  customers[_customer].loanAmount */\n      0x02\n      add\n      sload\n        /* \"contracts/SimpleBank.sol\":2293:2328  customers[_customer].loanAmount > 0 */\n      gt\n        /* \"contracts/SimpleBank.sol\":2285:2350  require(customers[_customer].loanAmount > 0, \"No loan requested\") */\n      tag_86\n      jumpi\n      mload(0x40)\n      0x08c379a000000000000000000000000000000000000000000000000000000000\n      dup2\n      mstore\n      0x04\n      add\n      tag_87\n      swap1\n      tag_88\n      jump\t// in\n    tag_87:\n      mload(0x40)\n      dup1\n      swap2\n      sub\n      swap1\n      revert\n    tag_86:\n        /* \"contracts/SimpleBank.sol\":2361:2376  uint loanAmount */\n      0x00\n        /* \"contracts/SimpleBank.sol\":2379:2388  customers */\n      0x01\n        /* \"contracts/SimpleBank.sol\":2379:2399  customers[_customer] */\n      0x00\n        /* \"contracts/SimpleBank.sol\":2389:2398  _customer */\n      dup4\n        /* \"contracts/SimpleBank.sol\":2379:2399  customers[_customer] */\n      0xffffffffffffffffffffffffffffffffffffffff\n      and\n      0xffffffffffffffffffffffffffffffffffffffff\n      and\n      dup2\n      mstore\n      0x20\n      add\n      swap1\n      dup2\n      mstore\n      0x20\n      add\n      0x00\n      keccak256\n        /* \"contracts/SimpleBank.sol\":2379:2410  customers[_customer].loanAmount */\n      0x02\n      add\n      sload\n        /* \"contracts/SimpleBank.sol\":2361:2410  uint loanAmount = customers[_customer].loanAmount */\n      swap1\n      pop\n        /* \"contracts/SimpleBank.sol\":2453:2463  loanAmount */\n      dup1\n        /* \"contracts/SimpleBank.sol\":2421:2430  customers */\n      0x01\n        /* \"contracts/SimpleBank.sol\":2421:2441  customers[_customer] */\n      0x00\n        /* \"contracts/SimpleBank.sol\":2431:2440  _customer */\n      dup5\n        /* \"contracts/SimpleBank.sol\":2421:2441  customers[_customer] */\n      0xffffffffffffffffffffffffffffffffffffffff\n      and\n      0xffffffffffffffffffffffffffffffffffffffff\n      and\n      dup2\n      mstore\n      0x20\n      add\n      swap1\n      dup2\n      mstore\n      0x20\n      add\n      0x00\n      keccak256\n        /* \"contracts/SimpleBank.sol\":2421:2449  customers[_customer].balance */\n      0x01\n      add\n      0x00\n        /* \"contracts/SimpleBank.sol\":2421:2463  customers[_customer].balance += loanAmount */\n      dup3\n      dup3\n      sload\n      tag_89\n      swap2\n      swap1\n      tag_50\n      jump\t// in\n    tag_89:\n      swap3\n      pop\n      pop\n      dup2\n      swap1\n      sstore\n      pop\n        /* \"contracts/SimpleBank.sol\":2508:2509  0 */\n      0x00\n        /* \"contracts/SimpleBank.sol\":2474:2483  customers */\n      0x01\n        /* \"contracts/SimpleBank.sol\":2474:2494  customers[_customer] */\n      0x00\n        /* \"contracts/SimpleBank.sol\":2484:2493  _customer */\n      dup5\n        /* \"contracts/SimpleBank.sol\":2474:2494  customers[_customer] */\n      0xffffffffffffffffffffffffffffffffffffffff\n      and\n      0xffffffffffffffffffffffffffffffffffffffff\n      and\n      dup2\n      mstore\n      0x20\n      add\n      swap1\n      dup2\n      mstore\n      0x20\n      add\n      0x00\n      keccak256\n        /* \"contracts/SimpleBank.sol\":2474:2505  customers[_customer].loanAmount */\n      0x02\n      add\n        /* \"contracts/SimpleBank.sol\":2474:2509  customers[_customer].loanAmount = 0 */\n      dup2\n      swap1\n      sstore\n      pop\n        /* \"contracts/SimpleBank.sol\":2538:2547  _customer */\n      dup2\n        /* \"contracts/SimpleBank.sol\":2525:2560  LoanApproval(_customer, loanAmount) */\n      0xffffffffffffffffffffffffffffffffffffffff\n      and\n      0x9def3714ad67ee33e56b45066e5dfd931275fb9145b3825d42b156e0241a2339\n        /* \"contracts/SimpleBank.sol\":2549:2559  loanAmount */\n      dup3\n        /* \"contracts/SimpleBank.sol\":2525:2560  LoanApproval(_customer, loanAmount) */\n      mload(0x40)\n      tag_90\n      swap2\n      swap1\n      tag_52\n      jump\t// in\n    tag_90:\n      mload(0x40)\n      dup1\n      swap2\n      sub\n      swap1\n      log2\n        /* \"contracts/SimpleBank.sol\":2274:2568  {... */\n      pop\n        /* \"contracts/SimpleBank.sol\":2217:2568  function approveLoan(address _customer) public onlyAdmin {... */\n      pop\n      jump\t// out\n        /* \"contracts/SimpleBank.sol\":87:107  address public admin */\n    tag_38:\n      0x00\n      dup1\n      sload\n      swap1\n      0x0100\n      exp\n      swap1\n      div\n      0xffffffffffffffffffffffffffffffffffffffff\n      and\n      dup2\n      jump\t// out\n        /* \"#utility.yul\":88:205   */\n    tag_92:\n        /* \"#utility.yul\":197:198   */\n      0x00\n        /* \"#utility.yul\":194:195   */\n      dup1\n        /* \"#utility.yul\":187:199   */\n      revert\n        /* \"#utility.yul\":334:460   */\n    tag_94:\n        /* \"#utility.yul\":371:378   */\n      0x00\n        /* \"#utility.yul\":411:453   */\n      0xffffffffffffffffffffffffffffffffffffffff\n        /* \"#utility.yul\":404:409   */\n      dup3\n        /* \"#utility.yul\":400:454   */\n      and\n        /* \"#utility.yul\":389:454   */\n      swap1\n      pop\n        /* \"#utility.yul\":334:460   */\n      swap2\n      swap1\n      pop\n      jump\t// out\n        /* \"#utility.yul\":466:562   */\n    tag_95:\n        /* \"#utility.yul\":503:510   */\n      0x00\n        /* \"#utility.yul\":532:556   */\n      tag_127\n        /* \"#utility.yul\":550:555   */\n      dup3\n        /* \"#utility.yul\":532:556   */\n      tag_94\n      jump\t// in\n    tag_127:\n        /* \"#utility.yul\":521:556   */\n      swap1\n      pop\n        /* \"#utility.yul\":466:562   */\n      swap2\n      swap1\n      pop\n      jump\t// out\n        /* \"#utility.yul\":568:690   */\n    tag_96:\n        /* \"#utility.yul\":641:665   */\n      tag_129\n        /* \"#utility.yul\":659:664   */\n      dup2\n        /* \"#utility.yul\":641:665   */\n      tag_95\n      jump\t// in\n    tag_129:\n        /* \"#utility.yul\":634:639   */\n      dup2\n        /* \"#utility.yul\":631:666   */\n      eq\n        /* \"#utility.yul\":621:684   */\n      tag_130\n      jumpi\n        /* \"#utility.yul\":680:681   */\n      0x00\n        /* \"#utility.yul\":677:678   */\n      dup1\n        /* \"#utility.yul\":670:682   */\n      revert\n        /* \"#utility.yul\":621:684   */\n    tag_130:\n        /* \"#utility.yul\":568:690   */\n      pop\n      jump\t// out\n        /* \"#utility.yul\":696:835   */\n    tag_97:\n        /* \"#utility.yul\":742:747   */\n      0x00\n        /* \"#utility.yul\":780:786   */\n      dup2\n        /* \"#utility.yul\":767:787   */\n      calldataload\n        /* \"#utility.yul\":758:787   */\n      swap1\n      pop\n        /* \"#utility.yul\":796:829   */\n      tag_132\n        /* \"#utility.yul\":823:828   */\n      dup2\n        /* \"#utility.yul\":796:829   */\n      tag_96\n      jump\t// in\n    tag_132:\n        /* \"#utility.yul\":696:835   */\n      swap3\n      swap2\n      pop\n      pop\n      jump\t// out\n        /* \"#utility.yul\":841:1170   */\n    tag_15:\n        /* \"#utility.yul\":900:906   */\n      0x00\n        /* \"#utility.yul\":949:951   */\n      0x20\n        /* \"#utility.yul\":937:946   */\n      dup3\n        /* \"#utility.yul\":928:935   */\n      dup5\n        /* \"#utility.yul\":924:947   */\n      sub\n        /* \"#utility.yul\":920:952   */\n      slt\n        /* \"#utility.yul\":917:1036   */\n      iszero\n      tag_134\n      jumpi\n        /* \"#utility.yul\":955:1034   */\n      tag_135\n      tag_92\n      jump\t// in\n    tag_135:\n        /* \"#utility.yul\":917:1036   */\n    tag_134:\n        /* \"#utility.yul\":1075:1076   */\n      0x00\n        /* \"#utility.yul\":1100:1153   */\n      tag_136\n        /* \"#utility.yul\":1145:1152   */\n      dup5\n        /* \"#utility.yul\":1136:1142   */\n      dup3\n        /* \"#utility.yul\":1125:1134   */\n      dup6\n        /* \"#utility.yul\":1121:1143   */\n      add\n        /* \"#utility.yul\":1100:1153   */\n      tag_97\n      jump\t// in\n    tag_136:\n        /* \"#utility.yul\":1090:1153   */\n      swap2\n      pop\n        /* \"#utility.yul\":1046:1163   */\n      pop\n        /* \"#utility.yul\":841:1170   */\n      swap3\n      swap2\n      pop\n      pop\n      jump\t// out\n        /* \"#utility.yul\":1176:1266   */\n    tag_98:\n        /* \"#utility.yul\":1210:1217   */\n      0x00\n        /* \"#utility.yul\":1253:1258   */\n      dup2\n        /* \"#utility.yul\":1246:1259   */\n      iszero\n        /* \"#utility.yul\":1239:1260   */\n      iszero\n        /* \"#utility.yul\":1228:1260   */\n      swap1\n      pop\n        /* \"#utility.yul\":1176:1266   */\n      swap2\n      swap1\n      pop\n      jump\t// out\n        /* \"#utility.yul\":1272:1381   */\n    tag_99:\n        /* \"#utility.yul\":1353:1374   */\n      tag_139\n        /* \"#utility.yul\":1368:1373   */\n      dup2\n        /* \"#utility.yul\":1353:1374   */\n      tag_98\n      jump\t// in\n    tag_139:\n        /* \"#utility.yul\":1348:1351   */\n      dup3\n        /* \"#utility.yul\":1341:1375   */\n      mstore\n        /* \"#utility.yul\":1272:1381   */\n      pop\n      pop\n      jump\t// out\n        /* \"#utility.yul\":1387:1464   */\n    tag_100:\n        /* \"#utility.yul\":1424:1431   */\n      0x00\n        /* \"#utility.yul\":1453:1458   */\n      dup2\n        /* \"#utility.yul\":1442:1458   */\n      swap1\n      pop\n        /* \"#utility.yul\":1387:1464   */\n      swap2\n      swap1\n      pop\n      jump\t// out\n        /* \"#utility.yul\":1470:1588   */\n    tag_101:\n        /* \"#utility.yul\":1557:1581   */\n      tag_142\n        /* \"#utility.yul\":1575:1580   */\n      dup2\n        /* \"#utility.yul\":1557:1581   */\n      tag_100\n      jump\t// in\n    tag_142:\n        /* \"#utility.yul\":1552:1555   */\n      dup3\n        /* \"#utility.yul\":1545:1582   */\n      mstore\n        /* \"#utility.yul\":1470:1588   */\n      pop\n      pop\n      jump\t// out\n        /* \"#utility.yul\":1594:2024   */\n    tag_18:\n        /* \"#utility.yul\":1737:1741   */\n      0x00\n        /* \"#utility.yul\":1775:1777   */\n      0x60\n        /* \"#utility.yul\":1764:1773   */\n      dup3\n        /* \"#utility.yul\":1760:1778   */\n      add\n        /* \"#utility.yul\":1752:1778   */\n      swap1\n      pop\n        /* \"#utility.yul\":1788:1853   */\n      tag_144\n        /* \"#utility.yul\":1850:1851   */\n      0x00\n        /* \"#utility.yul\":1839:1848   */\n      dup4\n        /* \"#utility.yul\":1835:1852   */\n      add\n        /* \"#utility.yul\":1826:1832   */\n      dup7\n        /* \"#utility.yul\":1788:1853   */\n      tag_99\n      jump\t// in\n    tag_144:\n        /* \"#utility.yul\":1863:1935   */\n      tag_145\n        /* \"#utility.yul\":1931:1933   */\n      0x20\n        /* \"#utility.yul\":1920:1929   */\n      dup4\n        /* \"#utility.yul\":1916:1934   */\n      add\n        /* \"#utility.yul\":1907:1913   */\n      dup6\n        /* \"#utility.yul\":1863:1935   */\n      tag_101\n      jump\t// in\n    tag_145:\n        /* \"#utility.yul\":1945:2017   */\n      tag_146\n        /* \"#utility.yul\":2013:2015   */\n      0x40\n        /* \"#utility.yul\":2002:2011   */\n      dup4\n        /* \"#utility.yul\":1998:2016   */\n      add\n        /* \"#utility.yul\":1989:1995   */\n      dup5\n        /* \"#utility.yul\":1945:2017   */\n      tag_101\n      jump\t// in\n    tag_146:\n        /* \"#utility.yul\":1594:2024   */\n      swap5\n      swap4\n      pop\n      pop\n      pop\n      pop\n      jump\t// out\n        /* \"#utility.yul\":2030:2152   */\n    tag_102:\n        /* \"#utility.yul\":2103:2127   */\n      tag_148\n        /* \"#utility.yul\":2121:2126   */\n      dup2\n        /* \"#utility.yul\":2103:2127   */\n      tag_100\n      jump\t// in\n    tag_148:\n        /* \"#utility.yul\":2096:2101   */\n      dup2\n        /* \"#utility.yul\":2093:2128   */\n      eq\n        /* \"#utility.yul\":2083:2146   */\n      tag_149\n      jumpi\n        /* \"#utility.yul\":2142:2143   */\n      0x00\n        /* \"#utility.yul\":2139:2140   */\n      dup1\n        /* \"#utility.yul\":2132:2144   */\n      revert\n        /* \"#utility.yul\":2083:2146   */\n    tag_149:\n        /* \"#utility.yul\":2030:2152   */\n      pop\n      jump\t// out\n        /* \"#utility.yul\":2158:2297   */\n    tag_103:\n        /* \"#utility.yul\":2204:2209   */\n      0x00\n        /* \"#utility.yul\":2242:2248   */\n      dup2\n        /* \"#utility.yul\":2229:2249   */\n      calldataload\n        /* \"#utility.yul\":2220:2249   */\n      swap1\n      pop\n        /* \"#utility.yul\":2258:2291   */\n      tag_151\n        /* \"#utility.yul\":2285:2290   */\n      dup2\n        /* \"#utility.yul\":2258:2291   */\n      tag_102\n      jump\t// in\n    tag_151:\n        /* \"#utility.yul\":2158:2297   */\n      swap3\n      swap2\n      pop\n      pop\n      jump\t// out\n        /* \"#utility.yul\":2303:2632   */\n    tag_22:\n        /* \"#utility.yul\":2362:2368   */\n      0x00\n        /* \"#utility.yul\":2411:2413   */\n      0x20\n        /* \"#utility.yul\":2399:2408   */\n      dup3\n        /* \"#utility.yul\":2390:2397   */\n      dup5\n        /* \"#utility.yul\":2386:2409   */\n      sub\n        /* \"#utility.yul\":2382:2414   */\n      slt\n        /* \"#utility.yul\":2379:2498   */\n      iszero\n      tag_153\n      jumpi\n        /* \"#utility.yul\":2417:2496   */\n      tag_154\n      tag_92\n      jump\t// in\n    tag_154:\n        /* \"#utility.yul\":2379:2498   */\n    tag_153:\n        /* \"#utility.yul\":2537:2538   */\n      0x00\n        /* \"#utility.yul\":2562:2615   */\n      tag_155\n        /* \"#utility.yul\":2607:2614   */\n      dup5\n        /* \"#utility.yul\":2598:2604   */\n      dup3\n        /* \"#utility.yul\":2587:2596   */\n      dup6\n        /* \"#utility.yul\":2583:2605   */\n      add\n        /* \"#utility.yul\":2562:2615   */\n      tag_103\n      jump\t// in\n    tag_155:\n        /* \"#utility.yul\":2552:2615   */\n      swap2\n      pop\n        /* \"#utility.yul\":2508:2625   */\n      pop\n        /* \"#utility.yul\":2303:2632   */\n      swap3\n      swap2\n      pop\n      pop\n      jump\t// out\n        /* \"#utility.yul\":2638:2756   */\n    tag_104:\n        /* \"#utility.yul\":2725:2749   */\n      tag_157\n        /* \"#utility.yul\":2743:2748   */\n      dup2\n        /* \"#utility.yul\":2725:2749   */\n      tag_95\n      jump\t// in\n    tag_157:\n        /* \"#utility.yul\":2720:2723   */\n      dup3\n        /* \"#utility.yul\":2713:2750   */\n      mstore\n        /* \"#utility.yul\":2638:2756   */\n      pop\n      pop\n      jump\t// out\n        /* \"#utility.yul\":2762:2984   */\n    tag_40:\n        /* \"#utility.yul\":2855:2859   */\n      0x00\n        /* \"#utility.yul\":2893:2895   */\n      0x20\n        /* \"#utility.yul\":2882:2891   */\n      dup3\n        /* \"#utility.yul\":2878:2896   */\n      add\n        /* \"#utility.yul\":2870:2896   */\n      swap1\n      pop\n        /* \"#utility.yul\":2906:2977   */\n      tag_159\n        /* \"#utility.yul\":2974:2975   */\n      0x00\n        /* \"#utility.yul\":2963:2972   */\n      dup4\n        /* \"#utility.yul\":2959:2976   */\n      add\n        /* \"#utility.yul\":2950:2956   */\n      dup5\n        /* \"#utility.yul\":2906:2977   */\n      tag_104\n      jump\t// in\n    tag_159:\n        /* \"#utility.yul\":2762:2984   */\n      swap3\n      swap2\n      pop\n      pop\n      jump\t// out\n        /* \"#utility.yul\":2990:3159   */\n    tag_105:\n        /* \"#utility.yul\":3074:3085   */\n      0x00\n        /* \"#utility.yul\":3108:3114   */\n      dup3\n        /* \"#utility.yul\":3103:3106   */\n      dup3\n        /* \"#utility.yul\":3096:3115   */\n      mstore\n        /* \"#utility.yul\":3148:3152   */\n      0x20\n        /* \"#utility.yul\":3143:3146   */\n      dup3\n        /* \"#utility.yul\":3139:3153   */\n      add\n        /* \"#utility.yul\":3124:3153   */\n      swap1\n      pop\n        /* \"#utility.yul\":2990:3159   */\n      swap3\n      swap2\n      pop\n      pop\n      jump\t// out\n        /* \"#utility.yul\":3165:3341   */\n    tag_106:\n        /* \"#utility.yul\":3305:3333   */\n      0x437573746f6d6572206973206e6f742072656769737465726564000000000000\n        /* \"#utility.yul\":3301:3302   */\n      0x00\n        /* \"#utility.yul\":3293:3299   */\n      dup3\n        /* \"#utility.yul\":3289:3303   */\n      add\n        /* \"#utility.yul\":3282:3334   */\n      mstore\n        /* \"#utility.yul\":3165:3341   */\n      pop\n      jump\t// out\n        /* \"#utility.yul\":3347:3713   */\n    tag_107:\n        /* \"#utility.yul\":3489:3492   */\n      0x00\n        /* \"#utility.yul\":3510:3577   */\n      tag_163\n        /* \"#utility.yul\":3574:3576   */\n      0x1a\n        /* \"#utility.yul\":3569:3572   */\n      dup4\n        /* \"#utility.yul\":3510:3577   */\n      tag_105\n      jump\t// in\n    tag_163:\n        /* \"#utility.yul\":3503:3577   */\n      swap2\n      pop\n        /* \"#utility.yul\":3586:3679   */\n      tag_164\n        /* \"#utility.yul\":3675:3678   */\n      dup3\n        /* \"#utility.yul\":3586:3679   */\n      tag_106\n      jump\t// in\n    tag_164:\n        /* \"#utility.yul\":3704:3706   */\n      0x20\n        /* \"#utility.yul\":3699:3702   */\n      dup3\n        /* \"#utility.yul\":3695:3707   */\n      add\n        /* \"#utility.yul\":3688:3707   */\n      swap1\n      pop\n        /* \"#utility.yul\":3347:3713   */\n      swap2\n      swap1\n      pop\n      jump\t// out\n        /* \"#utility.yul\":3719:4138   */\n    tag_44:\n        /* \"#utility.yul\":3885:3889   */\n      0x00\n        /* \"#utility.yul\":3923:3925   */\n      0x20\n        /* \"#utility.yul\":3912:3921   */\n      dup3\n        /* \"#utility.yul\":3908:3926   */\n      add\n        /* \"#utility.yul\":3900:3926   */\n      swap1\n      pop\n        /* \"#utility.yul\":3972:3981   */\n      dup2\n        /* \"#utility.yul\":3966:3970   */\n      dup2\n        /* \"#utility.yul\":3962:3982   */\n      sub\n        /* \"#utility.yul\":3958:3959   */\n      0x00\n        /* \"#utility.yul\":3947:3956   */\n      dup4\n        /* \"#utility.yul\":3943:3960   */\n      add\n        /* \"#utility.yul\":3936:3983   */\n      mstore\n        /* \"#utility.yul\":4000:4131   */\n      tag_166\n        /* \"#utility.yul\":4126:4130   */\n      dup2\n        /* \"#utility.yul\":4000:4131   */\n      tag_107\n      jump\t// in\n    tag_166:\n        /* \"#utility.yul\":3992:4131   */\n      swap1\n      pop\n        /* \"#utility.yul\":3719:4138   */\n      swap2\n      swap1\n      pop\n      jump\t// out\n        /* \"#utility.yul\":4144:4371   */\n    tag_108:\n        /* \"#utility.yul\":4284:4318   */\n      0x4465706f73697420616d6f756e74206d75737420626520677265617465722074\n        /* \"#utility.yul\":4280:4281   */\n      0x00\n        /* \"#utility.yul\":4272:4278   */\n      dup3\n        /* \"#utility.yul\":4268:4282   */\n      add\n        /* \"#utility.yul\":4261:4319   */\n      mstore\n        /* \"#utility.yul\":4353:4363   */\n      0x68616e207a65726f000000000000000000000000000000000000000000000000\n        /* \"#utility.yul\":4348:4350   */\n      0x20\n        /* \"#utility.yul\":4340:4346   */\n      dup3\n        /* \"#utility.yul\":4336:4351   */\n      add\n        /* \"#utility.yul\":4329:4364   */\n      mstore\n        /* \"#utility.yul\":4144:4371   */\n      pop\n      jump\t// out\n        /* \"#utility.yul\":4377:4743   */\n    tag_109:\n        /* \"#utility.yul\":4519:4522   */\n      0x00\n        /* \"#utility.yul\":4540:4607   */\n      tag_169\n        /* \"#utility.yul\":4604:4606   */\n      0x28\n        /* \"#utility.yul\":4599:4602   */\n      dup4\n        /* \"#utility.yul\":4540:4607   */\n      tag_105\n      jump\t// in\n    tag_169:\n        /* \"#utility.yul\":4533:4607   */\n      swap2\n      pop\n        /* \"#utility.yul\":4616:4709   */\n      tag_170\n        /* \"#utility.yul\":4705:4708   */\n      dup3\n        /* \"#utility.yul\":4616:4709   */\n      tag_108\n      jump\t// in\n    tag_170:\n        /* \"#utility.yul\":4734:4736   */\n      0x40\n        /* \"#utility.yul\":4729:4732   */\n      dup3\n        /* \"#utility.yul\":4725:4737   */\n      add\n        /* \"#utility.yul\":4718:4737   */\n      swap1\n      pop\n        /* \"#utility.yul\":4377:4743   */\n      swap2\n      swap1\n      pop\n      jump\t// out\n        /* \"#utility.yul\":4749:5168   */\n    tag_48:\n        /* \"#utility.yul\":4915:4919   */\n      0x00\n        /* \"#utility.yul\":4953:4955   */\n      0x20\n        /* \"#utility.yul\":4942:4951   */\n      dup3\n        /* \"#utility.yul\":4938:4956   */\n      add\n        /* \"#utility.yul\":4930:4956   */\n      swap1\n      pop\n        /* \"#utility.yul\":5002:5011   */\n      dup2\n        /* \"#utility.yul\":4996:5000   */\n      dup2\n        /* \"#utility.yul\":4992:5012   */\n      sub\n        /* \"#utility.yul\":4988:4989   */\n      0x00\n        /* \"#utility.yul\":4977:4986   */\n      dup4\n        /* \"#utility.yul\":4973:4990   */\n      add\n        /* \"#utility.yul\":4966:5013   */\n      mstore\n        /* \"#utility.yul\":5030:5161   */\n      tag_172\n        /* \"#utility.yul\":5156:5160   */\n      dup2\n        /* \"#utility.yul\":5030:5161   */\n      tag_109\n      jump\t// in\n    tag_172:\n        /* \"#utility.yul\":5022:5161   */\n      swap1\n      pop\n        /* \"#utility.yul\":4749:5168   */\n      swap2\n      swap1\n      pop\n      jump\t// out\n        /* \"#utility.yul\":5174:5354   */\n    tag_110:\n        /* \"#utility.yul\":5222:5299   */\n      0x4e487b7100000000000000000000000000000000000000000000000000000000\n        /* \"#utility.yul\":5219:5220   */\n      0x00\n        /* \"#utility.yul\":5212:5300   */\n      mstore\n        /* \"#utility.yul\":5319:5323   */\n      0x11\n        /* \"#utility.yul\":5316:5317   */\n      0x04\n        /* \"#utility.yul\":5309:5324   */\n      mstore\n        /* \"#utility.yul\":5343:5347   */\n      0x24\n        /* \"#utility.yul\":5340:5341   */\n      0x00\n        /* \"#utility.yul\":5333:5348   */\n      revert\n        /* \"#utility.yul\":5360:5551   */\n    tag_50:\n        /* \"#utility.yul\":5400:5403   */\n      0x00\n        /* \"#utility.yul\":5419:5439   */\n      tag_175\n        /* \"#utility.yul\":5437:5438   */\n      dup3\n        /* \"#utility.yul\":5419:5439   */\n      tag_100\n      jump\t// in\n    tag_175:\n        /* \"#utility.yul\":5414:5439   */\n      swap2\n      pop\n        /* \"#utility.yul\":5453:5473   */\n      tag_176\n        /* \"#utility.yul\":5471:5472   */\n      dup4\n        /* \"#utility.yul\":5453:5473   */\n      tag_100\n      jump\t// in\n    tag_176:\n        /* \"#utility.yul\":5448:5473   */\n      swap3\n      pop\n        /* \"#utility.yul\":5496:5497   */\n      dup3\n        /* \"#utility.yul\":5493:5494   */\n      dup3\n        /* \"#utility.yul\":5489:5498   */\n      add\n        /* \"#utility.yul\":5482:5498   */\n      swap1\n      pop\n        /* \"#utility.yul\":5517:5520   */\n      dup1\n        /* \"#utility.yul\":5514:5515   */\n      dup3\n        /* \"#utility.yul\":5511:5521   */\n      gt\n        /* \"#utility.yul\":5508:5544   */\n      iszero\n      tag_177\n      jumpi\n        /* \"#utility.yul\":5524:5542   */\n      tag_178\n      tag_110\n      jump\t// in\n    tag_178:\n        /* \"#utility.yul\":5508:5544   */\n    tag_177:\n        /* \"#utility.yul\":5360:5551   */\n      swap3\n      swap2\n      pop\n      pop\n      jump\t// out\n        /* \"#utility.yul\":5557:5779   */\n    tag_52:\n        /* \"#utility.yul\":5650:5654   */\n      0x00\n        /* \"#utility.yul\":5688:5690   */\n      0x20\n        /* \"#utility.yul\":5677:5686   */\n      dup3\n        /* \"#utility.yul\":5673:5691   */\n      add\n        /* \"#utility.yul\":5665:5691   */\n      swap1\n      pop\n        /* \"#utility.yul\":5701:5772   */\n      tag_180\n        /* \"#utility.yul\":5769:5770   */\n      0x00\n        /* \"#utility.yul\":5758:5767   */\n      dup4\n        /* \"#utility.yul\":5754:5771   */\n      add\n        /* \"#utility.yul\":5745:5751   */\n      dup5\n        /* \"#utility.yul\":5701:5772   */\n      tag_101\n      jump\t// in\n    tag_180:\n        /* \"#utility.yul\":5557:5779   */\n      swap3\n      swap2\n      pop\n      pop\n      jump\t// out\n        /* \"#utility.yul\":5785:5955   */\n    tag_111:\n        /* \"#utility.yul\":5925:5947   */\n      0x496e73756666696369656e742062616c616e6365000000000000000000000000\n        /* \"#utility.yul\":5921:5922   */\n      0x00\n        /* \"#utility.yul\":5913:5919   */\n      dup3\n        /* \"#utility.yul\":5909:5923   */\n      add\n        /* \"#utility.yul\":5902:5948   */\n      mstore\n        /* \"#utility.yul\":5785:5955   */\n      pop\n      jump\t// out\n        /* \"#utility.yul\":5961:6327   */\n    tag_112:\n        /* \"#utility.yul\":6103:6106   */\n      0x00\n        /* \"#utility.yul\":6124:6191   */\n      tag_183\n        /* \"#utility.yul\":6188:6190   */\n      0x14\n        /* \"#utility.yul\":6183:6186   */\n      dup4\n        /* \"#utility.yul\":6124:6191   */\n      tag_105\n      jump\t// in\n    tag_183:\n        /* \"#utility.yul\":6117:6191   */\n      swap2\n      pop\n        /* \"#utility.yul\":6200:6293   */\n      tag_184\n        /* \"#utility.yul\":6289:6292   */\n      dup3\n        /* \"#utility.yul\":6200:6293   */\n      tag_111\n      jump\t// in\n    tag_184:\n        /* \"#utility.yul\":6318:6320   */\n      0x20\n        /* \"#utility.yul\":6313:6316   */\n      dup3\n        /* \"#utility.yul\":6309:6321   */\n      add\n        /* \"#utility.yul\":6302:6321   */\n      swap1\n      pop\n        /* \"#utility.yul\":5961:6327   */\n      swap2\n      swap1\n      pop\n      jump\t// out\n        /* \"#utility.yul\":6333:6752   */\n    tag_59:\n        /* \"#utility.yul\":6499:6503   */\n      0x00\n        /* \"#utility.yul\":6537:6539   */\n      0x20\n        /* \"#utility.yul\":6526:6535   */\n      dup3\n        /* \"#utility.yul\":6522:6540   */\n      add\n        /* \"#utility.yul\":6514:6540   */\n      swap1\n      pop\n        /* \"#utility.yul\":6586:6595   */\n      dup2\n        /* \"#utility.yul\":6580:6584   */\n      dup2\n        /* \"#utility.yul\":6576:6596   */\n      sub\n        /* \"#utility.yul\":6572:6573   */\n      0x00\n        /* \"#utility.yul\":6561:6570   */\n      dup4\n        /* \"#utility.yul\":6557:6574   */\n      add\n        /* \"#utility.yul\":6550:6597   */\n      mstore\n        /* \"#utility.yul\":6614:6745   */\n      tag_186\n        /* \"#utility.yul\":6740:6744   */\n      dup2\n        /* \"#utility.yul\":6614:6745   */\n      tag_112\n      jump\t// in\n    tag_186:\n        /* \"#utility.yul\":6606:6745   */\n      swap1\n      pop\n        /* \"#utility.yul\":6333:6752   */\n      swap2\n      swap1\n      pop\n      jump\t// out\n        /* \"#utility.yul\":6758:6952   */\n    tag_63:\n        /* \"#utility.yul\":6798:6802   */\n      0x00\n        /* \"#utility.yul\":6818:6838   */\n      tag_188\n        /* \"#utility.yul\":6836:6837   */\n      dup3\n        /* \"#utility.yul\":6818:6838   */\n      tag_100\n      jump\t// in\n    tag_188:\n        /* \"#utility.yul\":6813:6838   */\n      swap2\n      pop\n        /* \"#utility.yul\":6852:6872   */\n      tag_189\n        /* \"#utility.yul\":6870:6871   */\n      dup4\n        /* \"#utility.yul\":6852:6872   */\n      tag_100\n      jump\t// in\n    tag_189:\n        /* \"#utility.yul\":6847:6872   */\n      swap3\n      pop\n        /* \"#utility.yul\":6896:6897   */\n      dup3\n        /* \"#utility.yul\":6893:6894   */\n      dup3\n        /* \"#utility.yul\":6889:6898   */\n      sub\n        /* \"#utility.yul\":6881:6898   */\n      swap1\n      pop\n        /* \"#utility.yul\":6920:6921   */\n      dup2\n        /* \"#utility.yul\":6914:6918   */\n      dup2\n        /* \"#utility.yul\":6911:6922   */\n      gt\n        /* \"#utility.yul\":6908:6945   */\n      iszero\n      tag_190\n      jumpi\n        /* \"#utility.yul\":6925:6943   */\n      tag_191\n      tag_110\n      jump\t// in\n    tag_191:\n        /* \"#utility.yul\":6908:6945   */\n    tag_190:\n        /* \"#utility.yul\":6758:6952   */\n      swap3\n      swap2\n      pop\n      pop\n      jump\t// out\n        /* \"#utility.yul\":6958:7179   */\n    tag_113:\n        /* \"#utility.yul\":7098:7132   */\n      0x4f6e6c792061646d696e2063616e20706572666f726d20746869732061637469\n        /* \"#utility.yul\":7094:7095   */\n      0x00\n        /* \"#utility.yul\":7086:7092   */\n      dup3\n        /* \"#utility.yul\":7082:7096   */\n      add\n        /* \"#utility.yul\":7075:7133   */\n      mstore\n        /* \"#utility.yul\":7167:7171   */\n      0x6f6e000000000000000000000000000000000000000000000000000000000000\n        /* \"#utility.yul\":7162:7164   */\n      0x20\n        /* \"#utility.yul\":7154:7160   */\n      dup3\n        /* \"#utility.yul\":7150:7165   */\n      add\n        /* \"#utility.yul\":7143:7172   */\n      mstore\n        /* \"#utility.yul\":6958:7179   */\n      pop\n      jump\t// out\n        /* \"#utility.yul\":7185:7551   */\n    tag_114:\n        /* \"#utility.yul\":7327:7330   */\n      0x00\n        /* \"#utility.yul\":7348:7415   */\n      tag_194\n        /* \"#utility.yul\":7412:7414   */\n      0x22\n        /* \"#utility.yul\":7407:7410   */\n      dup4\n        /* \"#utility.yul\":7348:7415   */\n      tag_105\n      jump\t// in\n    tag_194:\n        /* \"#utility.yul\":7341:7415   */\n      swap2\n      pop\n        /* \"#utility.yul\":7424:7517   */\n      tag_195\n        /* \"#utility.yul\":7513:7516   */\n      dup3\n        /* \"#utility.yul\":7424:7517   */\n      tag_113\n      jump\t// in\n    tag_195:\n        /* \"#utility.yul\":7542:7544   */\n      0x40\n        /* \"#utility.yul\":7537:7540   */\n      dup3\n        /* \"#utility.yul\":7533:7545   */\n      add\n        /* \"#utility.yul\":7526:7545   */\n      swap1\n      pop\n        /* \"#utility.yul\":7185:7551   */\n      swap2\n      swap1\n      pop\n      jump\t// out\n        /* \"#utility.yul\":7557:7976   */\n    tag_68:\n        /* \"#utility.yul\":7723:7727   */\n      0x00\n        /* \"#utility.yul\":7761:7763   */\n      0x20\n        /* \"#utility.yul\":7750:7759   */\n      dup3\n        /* \"#utility.yul\":7746:7764   */\n      add\n        /* \"#utility.yul\":7738:7764   */\n      swap1\n      pop\n        /* \"#utility.yul\":7810:7819   */\n      dup2\n        /* \"#utility.yul\":7804:7808   */\n      dup2\n        /* \"#utility.yul\":7800:7820   */\n      sub\n        /* \"#utility.yul\":7796:7797   */\n      0x00\n        /* \"#utility.yul\":7785:7794   */\n      dup4\n        /* \"#utility.yul\":7781:7798   */\n      add\n        /* \"#utility.yul\":7774:7821   */\n      mstore\n        /* \"#utility.yul\":7838:7969   */\n      tag_197\n        /* \"#utility.yul\":7964:7968   */\n      dup2\n        /* \"#utility.yul\":7838:7969   */\n      tag_114\n      jump\t// in\n    tag_197:\n        /* \"#utility.yul\":7830:7969   */\n      swap1\n      pop\n        /* \"#utility.yul\":7557:7976   */\n      swap2\n      swap1\n      pop\n      jump\t// out\n        /* \"#utility.yul\":7982:8159   */\n    tag_115:\n        /* \"#utility.yul\":8122:8151   */\n      0x437573746f6d657220616c726561647920726567697374657265640000000000\n        /* \"#utility.yul\":8118:8119   */\n      0x00\n        /* \"#utility.yul\":8110:8116   */\n      dup3\n        /* \"#utility.yul\":8106:8120   */\n      add\n        /* \"#utility.yul\":8099:8152   */\n      mstore\n        /* \"#utility.yul\":7982:8159   */\n      pop\n      jump\t// out\n        /* \"#utility.yul\":8165:8531   */\n    tag_116:\n        /* \"#utility.yul\":8307:8310   */\n      0x00\n        /* \"#utility.yul\":8328:8395   */\n      tag_200\n        /* \"#utility.yul\":8392:8394   */\n      0x1b\n        /* \"#utility.yul\":8387:8390   */\n      dup4\n        /* \"#utility.yul\":8328:8395   */\n      tag_105\n      jump\t// in\n    tag_200:\n        /* \"#utility.yul\":8321:8395   */\n      swap2\n      pop\n        /* \"#utility.yul\":8404:8497   */\n      tag_201\n        /* \"#utility.yul\":8493:8496   */\n      dup3\n        /* \"#utility.yul\":8404:8497   */\n      tag_115\n      jump\t// in\n    tag_201:\n        /* \"#utility.yul\":8522:8524   */\n      0x20\n        /* \"#utility.yul\":8517:8520   */\n      dup3\n        /* \"#utility.yul\":8513:8525   */\n      add\n        /* \"#utility.yul\":8506:8525   */\n      swap1\n      pop\n        /* \"#utility.yul\":8165:8531   */\n      swap2\n      swap1\n      pop\n      jump\t// out\n        /* \"#utility.yul\":8537:8956   */\n    tag_72:\n        /* \"#utility.yul\":8703:8707   */\n      0x00\n        /* \"#utility.yul\":8741:8743   */\n      0x20\n        /* \"#utility.yul\":8730:8739   */\n      dup3\n        /* \"#utility.yul\":8726:8744   */\n      add\n        /* \"#utility.yul\":8718:8744   */\n      swap1\n      pop\n        /* \"#utility.yul\":8790:8799   */\n      dup2\n        /* \"#utility.yul\":8784:8788   */\n      dup2\n        /* \"#utility.yul\":8780:8800   */\n      sub\n        /* \"#utility.yul\":8776:8777   */\n      0x00\n        /* \"#utility.yul\":8765:8774   */\n      dup4\n        /* \"#utility.yul\":8761:8778   */\n      add\n        /* \"#utility.yul\":8754:8801   */\n      mstore\n        /* \"#utility.yul\":8818:8949   */\n      tag_203\n        /* \"#utility.yul\":8944:8948   */\n      dup2\n        /* \"#utility.yul\":8818:8949   */\n      tag_116\n      jump\t// in\n    tag_203:\n        /* \"#utility.yul\":8810:8949   */\n      swap1\n      pop\n        /* \"#utility.yul\":8537:8956   */\n      swap2\n      swap1\n      pop\n      jump\t// out\n        /* \"#utility.yul\":8962:9186   */\n    tag_117:\n        /* \"#utility.yul\":9102:9136   */\n      0x4c6f616e20616d6f756e74206d7573742062652067726561746572207468616e\n        /* \"#utility.yul\":9098:9099   */\n      0x00\n        /* \"#utility.yul\":9090:9096   */\n      dup3\n        /* \"#utility.yul\":9086:9100   */\n      add\n        /* \"#utility.yul\":9079:9137   */\n      mstore\n        /* \"#utility.yul\":9171:9178   */\n      0x207a65726f000000000000000000000000000000000000000000000000000000\n        /* \"#utility.yul\":9166:9168   */\n      0x20\n        /* \"#utility.yul\":9158:9164   */\n      dup3\n        /* \"#utility.yul\":9154:9169   */\n      add\n        /* \"#utility.yul\":9147:9179   */\n      mstore\n        /* \"#utility.yul\":8962:9186   */\n      pop\n      jump\t// out\n        /* \"#utility.yul\":9192:9558   */\n    tag_118:\n        /* \"#utility.yul\":9334:9337   */\n      0x00\n        /* \"#utility.yul\":9355:9422   */\n      tag_206\n        /* \"#utility.yul\":9419:9421   */\n      0x25\n        /* \"#utility.yul\":9414:9417   */\n      dup4\n        /* \"#utility.yul\":9355:9422   */\n      tag_105\n      jump\t// in\n    tag_206:\n        /* \"#utility.yul\":9348:9422   */\n      swap2\n      pop\n        /* \"#utility.yul\":9431:9524   */\n      tag_207\n        /* \"#utility.yul\":9520:9523   */\n      dup3\n        /* \"#utility.yul\":9431:9524   */\n      tag_117\n      jump\t// in\n    tag_207:\n        /* \"#utility.yul\":9549:9551   */\n      0x40\n        /* \"#utility.yul\":9544:9547   */\n      dup3\n        /* \"#utility.yul\":9540:9552   */\n      add\n        /* \"#utility.yul\":9533:9552   */\n      swap1\n      pop\n        /* \"#utility.yul\":9192:9558   */\n      swap2\n      swap1\n      pop\n      jump\t// out\n        /* \"#utility.yul\":9564:9983   */\n    tag_79:\n        /* \"#utility.yul\":9730:9734   */\n      0x00\n        /* \"#utility.yul\":9768:9770   */\n      0x20\n        /* \"#utility.yul\":9757:9766   */\n      dup3\n        /* \"#utility.yul\":9753:9771   */\n      add\n        /* \"#utility.yul\":9745:9771   */\n      swap1\n      pop\n        /* \"#utility.yul\":9817:9826   */\n      dup2\n        /* \"#utility.yul\":9811:9815   */\n      dup2\n        /* \"#utility.yul\":9807:9827   */\n      sub\n        /* \"#utility.yul\":9803:9804   */\n      0x00\n        /* \"#utility.yul\":9792:9801   */\n      dup4\n        /* \"#utility.yul\":9788:9805   */\n      add\n        /* \"#utility.yul\":9781:9828   */\n      mstore\n        /* \"#utility.yul\":9845:9976   */\n      tag_209\n        /* \"#utility.yul\":9971:9975   */\n      dup2\n        /* \"#utility.yul\":9845:9976   */\n      tag_118\n      jump\t// in\n    tag_209:\n        /* \"#utility.yul\":9837:9976   */\n      swap1\n      pop\n        /* \"#utility.yul\":9564:9983   */\n      swap2\n      swap1\n      pop\n      jump\t// out\n        /* \"#utility.yul\":9989:10156   */\n    tag_119:\n        /* \"#utility.yul\":10129:10148   */\n      0x4e6f206c6f616e20726571756573746564000000000000000000000000000000\n        /* \"#utility.yul\":10125:10126   */\n      0x00\n        /* \"#utility.yul\":10117:10123   */\n      dup3\n        /* \"#utility.yul\":10113:10127   */\n      add\n        /* \"#utility.yul\":10106:10149   */\n      mstore\n        /* \"#utility.yul\":9989:10156   */\n      pop\n      jump\t// out\n        /* \"#utility.yul\":10162:10528   */\n    tag_120:\n        /* \"#utility.yul\":10304:10307   */\n      0x00\n        /* \"#utility.yul\":10325:10392   */\n      tag_212\n        /* \"#utility.yul\":10389:10391   */\n      0x11\n        /* \"#utility.yul\":10384:10387   */\n      dup4\n        /* \"#utility.yul\":10325:10392   */\n      tag_105\n      jump\t// in\n    tag_212:\n        /* \"#utility.yul\":10318:10392   */\n      swap2\n      pop\n        /* \"#utility.yul\":10401:10494   */\n      tag_213\n        /* \"#utility.yul\":10490:10493   */\n      dup3\n        /* \"#utility.yul\":10401:10494   */\n      tag_119\n      jump\t// in\n    tag_213:\n        /* \"#utility.yul\":10519:10521   */\n      0x20\n        /* \"#utility.yul\":10514:10517   */\n      dup3\n        /* \"#utility.yul\":10510:10522   */\n      add\n        /* \"#utility.yul\":10503:10522   */\n      swap1\n      pop\n        /* \"#utility.yul\":10162:10528   */\n      swap2\n      swap1\n      pop\n      jump\t// out\n        /* \"#utility.yul\":10534:10953   */\n    tag_88:\n        /* \"#utility.yul\":10700:10704   */\n      0x00\n        /* \"#utility.yul\":10738:10740   */\n      0x20\n        /* \"#utility.yul\":10727:10736   */\n      dup3\n        /* \"#utility.yul\":10723:10741   */\n      add\n        /* \"#utility.yul\":10715:10741   */\n      swap1\n      pop\n        /* \"#utility.yul\":10787:10796   */\n      dup2\n        /* \"#utility.yul\":10781:10785   */\n      dup2\n        /* \"#utility.yul\":10777:10797   */\n      sub\n        /* \"#utility.yul\":10773:10774   */\n      0x00\n        /* \"#utility.yul\":10762:10771   */\n      dup4\n        /* \"#utility.yul\":10758:10775   */\n      add\n        /* \"#utility.yul\":10751:10798   */\n      mstore\n        /* \"#utility.yul\":10815:10946   */\n      tag_215\n        /* \"#utility.yul\":10941:10945   */\n      dup2\n        /* \"#utility.yul\":10815:10946   */\n      tag_120\n      jump\t// in\n    tag_215:\n        /* \"#utility.yul\":10807:10946   */\n      swap1\n      pop\n        /* \"#utility.yul\":10534:10953   */\n      swap2\n      swap1\n      pop\n      jump\t// out\n\n    auxdata: 0xa2646970667358221220ff908bc87187f37afa3bb8968c544547d3339b950ee0c7c7ddeb4a3a08601e2c64736f6c63430008190033\n}\n",
				"bytecode": {
					"linkReferences": {},
					"object": "6080604052348015600e575f80fd5b50335f806101000a81548173ffffffffffffffffffffffffffffffffffffffff021916908373ffffffffffffffffffffffffffffffffffffffff1602179055506110918061005b5f395ff3fe60806040526004361061006f575f3560e01c80637520320f1161004d5780637520320f146100e35780638d5d34291461010b578063ac64036114610133578063f851a4401461015b5761006f565b806316c05aa214610073578063336989ae1461007d57806354876921146100bb575b5f80fd5b61007b610185565b005b348015610088575f80fd5b506100a3600480360381019061009e9190610b46565b6102f8565b6040516100b293929190610ba3565b60405180910390f35b3480156100c6575f80fd5b506100e160048036038101906100dc9190610c02565b61032a565b005b3480156100ee575f80fd5b5061010960048036038101906101049190610b46565b610523565b005b348015610116575f80fd5b50610131600480360381019061012c9190610c02565b610711565b005b34801561013e575f80fd5b5061015960048036038101906101549190610b46565b610885565b005b348015610166575f80fd5b5061016f610ac5565b60405161017c9190610c3c565b60405180910390f35b60015f3373ffffffffffffffffffffffffffffffffffffffff1673ffffffffffffffffffffffffffffffffffffffff1681526020019081526020015f205f015f9054906101000a900460ff16610210576040517f08c379a000000000000000000000000000000000000000000000000000000000815260040161020790610caf565b60405180910390fd5b5f3411610252576040517f08c379a000000000000000000000000000000000000000000000000000000000815260040161024990610d3d565b60405180910390fd5b3460015f3373ffffffffffffffffffffffffffffffffffffffff1673ffffffffffffffffffffffffffffffffffffffff1681526020019081526020015f206001015f8282546102a19190610d88565b925050819055503373ffffffffffffffffffffffffffffffffffffffff167fe1fffcc4923d04b559f4d29a8bfc6cda04eb5b0d3c460751c2402c5c5cc9109c346040516102ee9190610dbb565b60405180910390a2565b6001602052805f5260405f205f91509050805f015f9054906101000a900460ff16908060010154908060020154905083565b60015f3373ffffffffffffffffffffffffffffffffffffffff1673ffffffffffffffffffffffffffffffffffffffff1681526020019081526020015f205f015f9054906101000a900460ff166103b5576040517f08c379a00000000000000000000000000000000000000000000000000000000081526004016103ac90610caf565b60405180910390fd5b60015f3373ffffffffffffffffffffffffffffffffffffffff1673ffffffffffffffffffffffffffffffffffffffff1681526020019081526020015f2060010154811115610438576040517f08c379a000000000000000000000000000000000000000000000000000000000815260040161042f90610e1e565b60405180910390fd5b3373ffffffffffffffffffffffffffffffffffffffff166108fc8290811502906040515f60405180830381858888f1935050505015801561047b573d5f803e3d5ffd5b508060015f3373ffffffffffffffffffffffffffffffffffffffff1673ffffffffffffffffffffffffffffffffffffffff1681526020019081526020015f206001015f8282546104cb9190610e3c565b925050819055503373ffffffffffffffffffffffffffffffffffffffff167f7fcf532c15f0a6db0bd6d0e038bea71d30d808c7d98cb3bf7268a95bf5081b65826040516105189190610dbb565b60405180910390a250565b5f8054906101000a900473ffffffffffffffffffffffffffffffffffffffff1673ffffffffffffffffffffffffffffffffffffffff163373ffffffffffffffffffffffffffffffffffffffff16146105b0576040517f08c379a00000000000000000000000000000000000000000000000000000000081526004016105a790610edf565b60405180910390fd5b60015f8273ffffffffffffffffffffffffffffffffffffffff1673ffffffffffffffffffffffffffffffffffffffff1681526020019081526020015f205f015f9054906101000a900460ff161561063c576040517f08c379a000000000000000000000000000000000000000000000000000000000815260040161063390610f47565b60405180910390fd5b60405180606001604052806001151581526020015f81526020015f81525060015f8373ffffffffffffffffffffffffffffffffffffffff1673ffffffffffffffffffffffffffffffffffffffff1681526020019081526020015f205f820151815f015f6101000a81548160ff02191690831515021790555060208201518160010155604082015181600201559050508073ffffffffffffffffffffffffffffffffffffffff167f478f5152d8fc568db3f8de9fb402fd9d98a1a7541ecfe434e59cf574fbfc552460405160405180910390a250565b60015f3373ffffffffffffffffffffffffffffffffffffffff1673ffffffffffffffffffffffffffffffffffffffff1681526020019081526020015f205f015f9054906101000a900460ff1661079c576040517f08c379a000000000000000000000000000000000000000000000000000000000815260040161079390610caf565b60405180910390fd5b5f81116107de576040517f08c379a00000000000000000000000000000000000000000000000000000000081526004016107d590610fd5565b60405180910390fd5b8060015f3373ffffffffffffffffffffffffffffffffffffffff1673ffffffffffffffffffffffffffffffffffffffff1681526020019081526020015f206002015f82825461082d9190610d88565b925050819055503373ffffffffffffffffffffffffffffffffffffffff167fada4da57651fc83f009c1d1bb3d065605e9856f3f0e6d9877d6dcfe00b0393408260405161087a9190610dbb565b60405180910390a250565b5f8054906101000a900473ffffffffffffffffffffffffffffffffffffffff1673ffffffffffffffffffffffffffffffffffffffff163373ffffffffffffffffffffffffffffffffffffffff1614610912576040517f08c379a000000000000000000000000000000000000000000000000000000000815260040161090990610edf565b60405180910390fd5b5f60015f8373ffffffffffffffffffffffffffffffffffffffff1673ffffffffffffffffffffffffffffffffffffffff1681526020019081526020015f206002015411610994576040517f08c379a000000000000000000000000000000000000000000000000000000000815260040161098b9061103d565b60405180910390fd5b5f60015f8373ffffffffffffffffffffffffffffffffffffffff1673ffffffffffffffffffffffffffffffffffffffff1681526020019081526020015f206002015490508060015f8473ffffffffffffffffffffffffffffffffffffffff1673ffffffffffffffffffffffffffffffffffffffff1681526020019081526020015f206001015f828254610a279190610d88565b925050819055505f60015f8473ffffffffffffffffffffffffffffffffffffffff1673ffffffffffffffffffffffffffffffffffffffff1681526020019081526020015f20600201819055508173ffffffffffffffffffffffffffffffffffffffff167f9def3714ad67ee33e56b45066e5dfd931275fb9145b3825d42b156e0241a233982604051610ab99190610dbb565b60405180910390a25050565b5f8054906101000a900473ffffffffffffffffffffffffffffffffffffffff1681565b5f80fd5b5f73ffffffffffffffffffffffffffffffffffffffff82169050919050565b5f610b1582610aec565b9050919050565b610b2581610b0b565b8114610b2f575f80fd5b50565b5f81359050610b4081610b1c565b92915050565b5f60208284031215610b5b57610b5a610ae8565b5b5f610b6884828501610b32565b91505092915050565b5f8115159050919050565b610b8581610b71565b82525050565b5f819050919050565b610b9d81610b8b565b82525050565b5f606082019050610bb65f830186610b7c565b610bc36020830185610b94565b610bd06040830184610b94565b949350505050565b610be181610b8b565b8114610beb575f80fd5b50565b5f81359050610bfc81610bd8565b92915050565b5f60208284031215610c1757610c16610ae8565b5b5f610c2484828501610bee565b91505092915050565b610c3681610b0b565b82525050565b5f602082019050610c4f5f830184610c2d565b92915050565b5f82825260208201905092915050565b7f437573746f6d6572206973206e6f7420726567697374657265640000000000005f82015250565b5f610c99601a83610c55565b9150610ca482610c65565b602082019050919050565b5f6020820190508181035f830152610cc681610c8d565b9050919050565b7f4465706f73697420616d6f756e74206d757374206265206772656174657220745f8201527f68616e207a65726f000000000000000000000000000000000000000000000000602082015250565b5f610d27602883610c55565b9150610d3282610ccd565b604082019050919050565b5f6020820190508181035f830152610d5481610d1b565b9050919050565b7f4e487b71000000000000000000000000000000000000000000000000000000005f52601160045260245ffd5b5f610d9282610b8b565b9150610d9d83610b8b565b9250828201905080821115610db557610db4610d5b565b5b92915050565b5f602082019050610dce5f830184610b94565b92915050565b7f496e73756666696369656e742062616c616e63650000000000000000000000005f82015250565b5f610e08601483610c55565b9150610e1382610dd4565b602082019050919050565b5f6020820190508181035f830152610e3581610dfc565b9050919050565b5f610e4682610b8b565b9150610e5183610b8b565b9250828203905081811115610e6957610e68610d5b565b5b92915050565b7f4f6e6c792061646d696e2063616e20706572666f726d207468697320616374695f8201527f6f6e000000000000000000000000000000000000000000000000000000000000602082015250565b5f610ec9602283610c55565b9150610ed482610e6f565b604082019050919050565b5f6020820190508181035f830152610ef681610ebd565b9050919050565b7f437573746f6d657220616c7265616479207265676973746572656400000000005f82015250565b5f610f31601b83610c55565b9150610f3c82610efd565b602082019050919050565b5f6020820190508181035f830152610f5e81610f25565b9050919050565b7f4c6f616e20616d6f756e74206d7573742062652067726561746572207468616e5f8201527f207a65726f000000000000000000000000000000000000000000000000000000602082015250565b5f610fbf602583610c55565b9150610fca82610f65565b604082019050919050565b5f6020820190508181035f830152610fec81610fb3565b9050919050565b7f4e6f206c6f616e207265717565737465640000000000000000000000000000005f82015250565b5f611027601183610c55565b915061103282610ff3565b602082019050919050565b5f6020820190508181035f8301526110548161101b565b905091905056fea2646970667358221220ff908bc87187f37afa3bb8968c544547d3339b950ee0c7c7ddeb4a3a08601e2c64736f6c63430008190033",
					"opcodes": "PUSH1 0x80 PUSH1 0x40 MSTORE CALLVALUE DUP1 ISZERO PUSH1 0xE JUMPI PUSH0 DUP1 REVERT JUMPDEST POP CALLER PUSH0 DUP1 PUSH2 0x100 EXP DUP2 SLOAD DUP2 PUSH20 0xFFFFFFFFFFFFFFFFFFFFFFFFFFFFFFFFFFFFFFFF MUL NOT AND SWAP1 DUP4 PUSH20 0xFFFFFFFFFFFFFFFFFFFFFFFFFFFFFFFFFFFFFFFF AND MUL OR SWAP1 SSTORE POP PUSH2 0x1091 DUP1 PUSH2 0x5B PUSH0 CODECOPY PUSH0 RETURN INVALID PUSH1 0x80 PUSH1 0x40 MSTORE PUSH1 0x4 CALLDATASIZE LT PUSH2 0x6F JUMPI PUSH0 CALLDATALOAD PUSH1 0xE0 SHR DUP1 PUSH4 0x7520320F GT PUSH2 0x4D JUMPI DUP1 PUSH4 0x7520320F EQ PUSH2 0xE3 JUMPI DUP1 PUSH4 0x8D5D3429 EQ PUSH2 0x10B JUMPI DUP1 PUSH4 0xAC640361 EQ PUSH2 0x133 JUMPI DUP1 PUSH4 0xF851A440 EQ PUSH2 0x15B JUMPI PUSH2 0x6F JUMP JUMPDEST DUP1 PUSH4 0x16C05AA2 EQ PUSH2 0x73 JUMPI DUP1 PUSH4 0x336989AE EQ PUSH2 0x7D JUMPI DUP1 PUSH4 0x54876921 EQ PUSH2 0xBB JUMPI JUMPDEST PUSH0 DUP1 REVERT JUMPDEST PUSH2 0x7B PUSH2 0x185 JUMP JUMPDEST STOP JUMPDEST CALLVALUE DUP1 ISZERO PUSH2 0x88 JUMPI PUSH0 DUP1 REVERT JUMPDEST POP PUSH2 0xA3 PUSH1 0x4 DUP1 CALLDATASIZE SUB DUP2 ADD SWAP1 PUSH2 0x9E SWAP2 SWAP1 PUSH2 0xB46 JUMP JUMPDEST PUSH2 0x2F8 JUMP JUMPDEST PUSH1 0x40 MLOAD PUSH2 0xB2 SWAP4 SWAP3 SWAP2 SWAP1 PUSH2 0xBA3 JUMP JUMPDEST PUSH1 0x40 MLOAD DUP1 SWAP2 SUB SWAP1 RETURN JUMPDEST CALLVALUE DUP1 ISZERO PUSH2 0xC6 JUMPI PUSH0 DUP1 REVERT JUMPDEST POP PUSH2 0xE1 PUSH1 0x4 DUP1 CALLDATASIZE SUB DUP2 ADD SWAP1 PUSH2 0xDC SWAP2 SWAP1 PUSH2 0xC02 JUMP JUMPDEST PUSH2 0x32A JUMP JUMPDEST STOP JUMPDEST CALLVALUE DUP1 ISZERO PUSH2 0xEE JUMPI PUSH0 DUP1 REVERT JUMPDEST POP PUSH2 0x109 PUSH1 0x4 DUP1 CALLDATASIZE SUB DUP2 ADD SWAP1 PUSH2 0x104 SWAP2 SWAP1 PUSH2 0xB46 JUMP JUMPDEST PUSH2 0x523 JUMP JUMPDEST STOP JUMPDEST CALLVALUE DUP1 ISZERO PUSH2 0x116 JUMPI PUSH0 DUP1 REVERT JUMPDEST POP PUSH2 0x131 PUSH1 0x4 DUP1 CALLDATASIZE SUB DUP2 ADD SWAP1 PUSH2 0x12C SWAP2 SWAP1 PUSH2 0xC02 JUMP JUMPDEST PUSH2 0x711 JUMP JUMPDEST STOP JUMPDEST CALLVALUE DUP1 ISZERO PUSH2 0x13E JUMPI PUSH0 DUP1 REVERT JUMPDEST POP PUSH2 0x159 PUSH1 0x4 DUP1 CALLDATASIZE SUB DUP2 ADD SWAP1 PUSH2 0x154 SWAP2 SWAP1 PUSH2 0xB46 JUMP JUMPDEST PUSH2 0x885 JUMP JUMPDEST STOP JUMPDEST CALLVALUE DUP1 ISZERO PUSH2 0x166 JUMPI PUSH0 DUP1 REVERT JUMPDEST POP PUSH2 0x16F PUSH2 0xAC5 JUMP JUMPDEST PUSH1 0x40 MLOAD PUSH2 0x17C SWAP2 SWAP1 PUSH2 0xC3C JUMP JUMPDEST PUSH1 0x40 MLOAD DUP1 SWAP2 SUB SWAP1 RETURN JUMPDEST PUSH1 0x1 PUSH0 CALLER PUSH20 0xFFFFFFFFFFFFFFFFFFFFFFFFFFFFFFFFFFFFFFFF AND PUSH20 0xFFFFFFFFFFFFFFFFFFFFFFFFFFFFFFFFFFFFFFFF AND DUP2 MSTORE PUSH1 0x20 ADD SWAP1 DUP2 MSTORE PUSH1 0x20 ADD PUSH0 KECCAK256 PUSH0 ADD PUSH0 SWAP1 SLOAD SWAP1 PUSH2 0x100 EXP SWAP1 DIV PUSH1 0xFF AND PUSH2 0x210 JUMPI PUSH1 0x40 MLOAD PUSH32 0x8C379A000000000000000000000000000000000000000000000000000000000 DUP2 MSTORE PUSH1 0x4 ADD PUSH2 0x207 SWAP1 PUSH2 0xCAF JUMP JUMPDEST PUSH1 0x40 MLOAD DUP1 SWAP2 SUB SWAP1 REVERT JUMPDEST PUSH0 CALLVALUE GT PUSH2 0x252 JUMPI PUSH1 0x40 MLOAD PUSH32 0x8C379A000000000000000000000000000000000000000000000000000000000 DUP2 MSTORE PUSH1 0x4 ADD PUSH2 0x249 SWAP1 PUSH2 0xD3D JUMP JUMPDEST PUSH1 0x40 MLOAD DUP1 SWAP2 SUB SWAP1 REVERT JUMPDEST CALLVALUE PUSH1 0x1 PUSH0 CALLER PUSH20 0xFFFFFFFFFFFFFFFFFFFFFFFFFFFFFFFFFFFFFFFF AND PUSH20 0xFFFFFFFFFFFFFFFFFFFFFFFFFFFFFFFFFFFFFFFF AND DUP2 MSTORE PUSH1 0x20 ADD SWAP1 DUP2 MSTORE PUSH1 0x20 ADD PUSH0 KECCAK256 PUSH1 0x1 ADD PUSH0 DUP3 DUP3 SLOAD PUSH2 0x2A1 SWAP2 SWAP1 PUSH2 0xD88 JUMP JUMPDEST SWAP3 POP POP DUP2 SWAP1 SSTORE POP CALLER PUSH20 0xFFFFFFFFFFFFFFFFFFFFFFFFFFFFFFFFFFFFFFFF AND PUSH32 0xE1FFFCC4923D04B559F4D29A8BFC6CDA04EB5B0D3C460751C2402C5C5CC9109C CALLVALUE PUSH1 0x40 MLOAD PUSH2 0x2EE SWAP2 SWAP1 PUSH2 0xDBB JUMP JUMPDEST PUSH1 0x40 MLOAD DUP1 SWAP2 SUB SWAP1 LOG2 JUMP JUMPDEST PUSH1 0x1 PUSH1 0x20 MSTORE DUP1 PUSH0 MSTORE PUSH1 0x40 PUSH0 KECCAK256 PUSH0 SWAP2 POP SWAP1 POP DUP1 PUSH0 ADD PUSH0 SWAP1 SLOAD SWAP1 PUSH2 0x100 EXP SWAP1 DIV PUSH1 0xFF AND SWAP1 DUP1 PUSH1 0x1 ADD SLOAD SWAP1 DUP1 PUSH1 0x2 ADD SLOAD SWAP1 POP DUP4 JUMP JUMPDEST PUSH1 0x1 PUSH0 CALLER PUSH20 0xFFFFFFFFFFFFFFFFFFFFFFFFFFFFFFFFFFFFFFFF AND PUSH20 0xFFFFFFFFFFFFFFFFFFFFFFFFFFFFFFFFFFFFFFFF AND DUP2 MSTORE PUSH1 0x20 ADD SWAP1 DUP2 MSTORE PUSH1 0x20 ADD PUSH0 KECCAK256 PUSH0 ADD PUSH0 SWAP1 SLOAD SWAP1 PUSH2 0x100 EXP SWAP1 DIV PUSH1 0xFF AND PUSH2 0x3B5 JUMPI PUSH1 0x40 MLOAD PUSH32 0x8C379A000000000000000000000000000000000000000000000000000000000 DUP2 MSTORE PUSH1 0x4 ADD PUSH2 0x3AC SWAP1 PUSH2 0xCAF JUMP JUMPDEST PUSH1 0x40 MLOAD DUP1 SWAP2 SUB SWAP1 REVERT JUMPDEST PUSH1 0x1 PUSH0 CALLER PUSH20 0xFFFFFFFFFFFFFFFFFFFFFFFFFFFFFFFFFFFFFFFF AND PUSH20 0xFFFFFFFFFFFFFFFFFFFFFFFFFFFFFFFFFFFFFFFF AND DUP2 MSTORE PUSH1 0x20 ADD SWAP1 DUP2 MSTORE PUSH1 0x20 ADD PUSH0 KECCAK256 PUSH1 0x1 ADD SLOAD DUP2 GT ISZERO PUSH2 0x438 JUMPI PUSH1 0x40 MLOAD PUSH32 0x8C379A000000000000000000000000000000000000000000000000000000000 DUP2 MSTORE PUSH1 0x4 ADD PUSH2 0x42F SWAP1 PUSH2 0xE1E JUMP JUMPDEST PUSH1 0x40 MLOAD DUP1 SWAP2 SUB SWAP1 REVERT JUMPDEST CALLER PUSH20 0xFFFFFFFFFFFFFFFFFFFFFFFFFFFFFFFFFFFFFFFF AND PUSH2 0x8FC DUP3 SWAP1 DUP2 ISZERO MUL SWAP1 PUSH1 0x40 MLOAD PUSH0 PUSH1 0x40 MLOAD DUP1 DUP4 SUB DUP2 DUP6 DUP9 DUP9 CALL SWAP4 POP POP POP POP ISZERO DUP1 ISZERO PUSH2 0x47B JUMPI RETURNDATASIZE PUSH0 DUP1 RETURNDATACOPY RETURNDATASIZE PUSH0 REVERT JUMPDEST POP DUP1 PUSH1 0x1 PUSH0 CALLER PUSH20 0xFFFFFFFFFFFFFFFFFFFFFFFFFFFFFFFFFFFFFFFF AND PUSH20 0xFFFFFFFFFFFFFFFFFFFFFFFFFFFFFFFFFFFFFFFF AND DUP2 MSTORE PUSH1 0x20 ADD SWAP1 DUP2 MSTORE PUSH1 0x20 ADD PUSH0 KECCAK256 PUSH1 0x1 ADD PUSH0 DUP3 DUP3 SLOAD PUSH2 0x4CB SWAP2 SWAP1 PUSH2 0xE3C JUMP JUMPDEST SWAP3 POP POP DUP2 SWAP1 SSTORE POP CALLER PUSH20 0xFFFFFFFFFFFFFFFFFFFFFFFFFFFFFFFFFFFFFFFF AND PUSH32 0x7FCF532C15F0A6DB0BD6D0E038BEA71D30D808C7D98CB3BF7268A95BF5081B65 DUP3 PUSH1 0x40 MLOAD PUSH2 0x518 SWAP2 SWAP1 PUSH2 0xDBB JUMP JUMPDEST PUSH1 0x40 MLOAD DUP1 SWAP2 SUB SWAP1 LOG2 POP JUMP JUMPDEST PUSH0 DUP1 SLOAD SWAP1 PUSH2 0x100 EXP SWAP1 DIV PUSH20 0xFFFFFFFFFFFFFFFFFFFFFFFFFFFFFFFFFFFFFFFF AND PUSH20 0xFFFFFFFFFFFFFFFFFFFFFFFFFFFFFFFFFFFFFFFF AND CALLER PUSH20 0xFFFFFFFFFFFFFFFFFFFFFFFFFFFFFFFFFFFFFFFF AND EQ PUSH2 0x5B0 JUMPI PUSH1 0x40 MLOAD PUSH32 0x8C379A000000000000000000000000000000000000000000000000000000000 DUP2 MSTORE PUSH1 0x4 ADD PUSH2 0x5A7 SWAP1 PUSH2 0xEDF JUMP JUMPDEST PUSH1 0x40 MLOAD DUP1 SWAP2 SUB SWAP1 REVERT JUMPDEST PUSH1 0x1 PUSH0 DUP3 PUSH20 0xFFFFFFFFFFFFFFFFFFFFFFFFFFFFFFFFFFFFFFFF AND PUSH20 0xFFFFFFFFFFFFFFFFFFFFFFFFFFFFFFFFFFFFFFFF AND DUP2 MSTORE PUSH1 0x20 ADD SWAP1 DUP2 MSTORE PUSH1 0x20 ADD PUSH0 KECCAK256 PUSH0 ADD PUSH0 SWAP1 SLOAD SWAP1 PUSH2 0x100 EXP SWAP1 DIV PUSH1 0xFF AND ISZERO PUSH2 0x63C JUMPI PUSH1 0x40 MLOAD PUSH32 0x8C379A000000000000000000000000000000000000000000000000000000000 DUP2 MSTORE PUSH1 0x4 ADD PUSH2 0x633 SWAP1 PUSH2 0xF47 JUMP JUMPDEST PUSH1 0x40 MLOAD DUP1 SWAP2 SUB SWAP1 REVERT JUMPDEST PUSH1 0x40 MLOAD DUP1 PUSH1 0x60 ADD PUSH1 0x40 MSTORE DUP1 PUSH1 0x1 ISZERO ISZERO DUP2 MSTORE PUSH1 0x20 ADD PUSH0 DUP2 MSTORE PUSH1 0x20 ADD PUSH0 DUP2 MSTORE POP PUSH1 0x1 PUSH0 DUP4 PUSH20 0xFFFFFFFFFFFFFFFFFFFFFFFFFFFFFFFFFFFFFFFF AND PUSH20 0xFFFFFFFFFFFFFFFFFFFFFFFFFFFFFFFFFFFFFFFF AND DUP2 MSTORE PUSH1 0x20 ADD SWAP1 DUP2 MSTORE PUSH1 0x20 ADD PUSH0 KECCAK256 PUSH0 DUP3 ADD MLOAD DUP2 PUSH0 ADD PUSH0 PUSH2 0x100 EXP DUP2 SLOAD DUP2 PUSH1 0xFF MUL NOT AND SWAP1 DUP4 ISZERO ISZERO MUL OR SWAP1 SSTORE POP PUSH1 0x20 DUP3 ADD MLOAD DUP2 PUSH1 0x1 ADD SSTORE PUSH1 0x40 DUP3 ADD MLOAD DUP2 PUSH1 0x2 ADD SSTORE SWAP1 POP POP DUP1 PUSH20 0xFFFFFFFFFFFFFFFFFFFFFFFFFFFFFFFFFFFFFFFF AND PUSH32 0x478F5152D8FC568DB3F8DE9FB402FD9D98A1A7541ECFE434E59CF574FBFC5524 PUSH1 0x40 MLOAD PUSH1 0x40 MLOAD DUP1 SWAP2 SUB SWAP1 LOG2 POP JUMP JUMPDEST PUSH1 0x1 PUSH0 CALLER PUSH20 0xFFFFFFFFFFFFFFFFFFFFFFFFFFFFFFFFFFFFFFFF AND PUSH20 0xFFFFFFFFFFFFFFFFFFFFFFFFFFFFFFFFFFFFFFFF AND DUP2 MSTORE PUSH1 0x20 ADD SWAP1 DUP2 MSTORE PUSH1 0x20 ADD PUSH0 KECCAK256 PUSH0 ADD PUSH0 SWAP1 SLOAD SWAP1 PUSH2 0x100 EXP SWAP1 DIV PUSH1 0xFF AND PUSH2 0x79C JUMPI PUSH1 0x40 MLOAD PUSH32 0x8C379A000000000000000000000000000000000000000000000000000000000 DUP2 MSTORE PUSH1 0x4 ADD PUSH2 0x793 SWAP1 PUSH2 0xCAF JUMP JUMPDEST PUSH1 0x40 MLOAD DUP1 SWAP2 SUB SWAP1 REVERT JUMPDEST PUSH0 DUP2 GT PUSH2 0x7DE JUMPI PUSH1 0x40 MLOAD PUSH32 0x8C379A000000000000000000000000000000000000000000000000000000000 DUP2 MSTORE PUSH1 0x4 ADD PUSH2 0x7D5 SWAP1 PUSH2 0xFD5 JUMP JUMPDEST PUSH1 0x40 MLOAD DUP1 SWAP2 SUB SWAP1 REVERT JUMPDEST DUP1 PUSH1 0x1 PUSH0 CALLER PUSH20 0xFFFFFFFFFFFFFFFFFFFFFFFFFFFFFFFFFFFFFFFF AND PUSH20 0xFFFFFFFFFFFFFFFFFFFFFFFFFFFFFFFFFFFFFFFF AND DUP2 MSTORE PUSH1 0x20 ADD SWAP1 DUP2 MSTORE PUSH1 0x20 ADD PUSH0 KECCAK256 PUSH1 0x2 ADD PUSH0 DUP3 DUP3 SLOAD PUSH2 0x82D SWAP2 SWAP1 PUSH2 0xD88 JUMP JUMPDEST SWAP3 POP POP DUP2 SWAP1 SSTORE POP CALLER PUSH20 0xFFFFFFFFFFFFFFFFFFFFFFFFFFFFFFFFFFFFFFFF AND PUSH32 0xADA4DA57651FC83F009C1D1BB3D065605E9856F3F0E6D9877D6DCFE00B039340 DUP3 PUSH1 0x40 MLOAD PUSH2 0x87A SWAP2 SWAP1 PUSH2 0xDBB JUMP JUMPDEST PUSH1 0x40 MLOAD DUP1 SWAP2 SUB SWAP1 LOG2 POP JUMP JUMPDEST PUSH0 DUP1 SLOAD SWAP1 PUSH2 0x100 EXP SWAP1 DIV PUSH20 0xFFFFFFFFFFFFFFFFFFFFFFFFFFFFFFFFFFFFFFFF AND PUSH20 0xFFFFFFFFFFFFFFFFFFFFFFFFFFFFFFFFFFFFFFFF AND CALLER PUSH20 0xFFFFFFFFFFFFFFFFFFFFFFFFFFFFFFFFFFFFFFFF AND EQ PUSH2 0x912 JUMPI PUSH1 0x40 MLOAD PUSH32 0x8C379A000000000000000000000000000000000000000000000000000000000 DUP2 MSTORE PUSH1 0x4 ADD PUSH2 0x909 SWAP1 PUSH2 0xEDF JUMP JUMPDEST PUSH1 0x40 MLOAD DUP1 SWAP2 SUB SWAP1 REVERT JUMPDEST PUSH0 PUSH1 0x1 PUSH0 DUP4 PUSH20 0xFFFFFFFFFFFFFFFFFFFFFFFFFFFFFFFFFFFFFFFF AND PUSH20 0xFFFFFFFFFFFFFFFFFFFFFFFFFFFFFFFFFFFFFFFF AND DUP2 MSTORE PUSH1 0x20 ADD SWAP1 DUP2 MSTORE PUSH1 0x20 ADD PUSH0 KECCAK256 PUSH1 0x2 ADD SLOAD GT PUSH2 0x994 JUMPI PUSH1 0x40 MLOAD PUSH32 0x8C379A000000000000000000000000000000000000000000000000000000000 DUP2 MSTORE PUSH1 0x4 ADD PUSH2 0x98B SWAP1 PUSH2 0x103D JUMP JUMPDEST PUSH1 0x40 MLOAD DUP1 SWAP2 SUB SWAP1 REVERT JUMPDEST PUSH0 PUSH1 0x1 PUSH0 DUP4 PUSH20 0xFFFFFFFFFFFFFFFFFFFFFFFFFFFFFFFFFFFFFFFF AND PUSH20 0xFFFFFFFFFFFFFFFFFFFFFFFFFFFFFFFFFFFFFFFF AND DUP2 MSTORE PUSH1 0x20 ADD SWAP1 DUP2 MSTORE PUSH1 0x20 ADD PUSH0 KECCAK256 PUSH1 0x2 ADD SLOAD SWAP1 POP DUP1 PUSH1 0x1 PUSH0 DUP5 PUSH20 0xFFFFFFFFFFFFFFFFFFFFFFFFFFFFFFFFFFFFFFFF AND PUSH20 0xFFFFFFFFFFFFFFFFFFFFFFFFFFFFFFFFFFFFFFFF AND DUP2 MSTORE PUSH1 0x20 ADD SWAP1 DUP2 MSTORE PUSH1 0x20 ADD PUSH0 KECCAK256 PUSH1 0x1 ADD PUSH0 DUP3 DUP3 SLOAD PUSH2 0xA27 SWAP2 SWAP1 PUSH2 0xD88 JUMP JUMPDEST SWAP3 POP POP DUP2 SWAP1 SSTORE POP PUSH0 PUSH1 0x1 PUSH0 DUP5 PUSH20 0xFFFFFFFFFFFFFFFFFFFFFFFFFFFFFFFFFFFFFFFF AND PUSH20 0xFFFFFFFFFFFFFFFFFFFFFFFFFFFFFFFFFFFFFFFF AND DUP2 MSTORE PUSH1 0x20 ADD SWAP1 DUP2 MSTORE PUSH1 0x20 ADD PUSH0 KECCAK256 PUSH1 0x2 ADD DUP2 SWAP1 SSTORE POP DUP2 PUSH20 0xFFFFFFFFFFFFFFFFFFFFFFFFFFFFFFFFFFFFFFFF AND PUSH32 0x9DEF3714AD67EE33E56B45066E5DFD931275FB9145B3825D42B156E0241A2339 DUP3 PUSH1 0x40 MLOAD PUSH2 0xAB9 SWAP2 SWAP1 PUSH2 0xDBB JUMP JUMPDEST PUSH1 0x40 MLOAD DUP1 SWAP2 SUB SWAP1 LOG2 POP POP JUMP JUMPDEST PUSH0 DUP1 SLOAD SWAP1 PUSH2 0x100 EXP SWAP1 DIV PUSH20 0xFFFFFFFFFFFFFFFFFFFFFFFFFFFFFFFFFFFFFFFF AND DUP2 JUMP JUMPDEST PUSH0 DUP1 REVERT JUMPDEST PUSH0 PUSH20 0xFFFFFFFFFFFFFFFFFFFFFFFFFFFFFFFFFFFFFFFF DUP3 AND SWAP1 POP SWAP2 SWAP1 POP JUMP JUMPDEST PUSH0 PUSH2 0xB15 DUP3 PUSH2 0xAEC JUMP JUMPDEST SWAP1 POP SWAP2 SWAP1 POP JUMP JUMPDEST PUSH2 0xB25 DUP2 PUSH2 0xB0B JUMP JUMPDEST DUP2 EQ PUSH2 0xB2F JUMPI PUSH0 DUP1 REVERT JUMPDEST POP JUMP JUMPDEST PUSH0 DUP2 CALLDATALOAD SWAP1 POP PUSH2 0xB40 DUP2 PUSH2 0xB1C JUMP JUMPDEST SWAP3 SWAP2 POP POP JUMP JUMPDEST PUSH0 PUSH1 0x20 DUP3 DUP5 SUB SLT ISZERO PUSH2 0xB5B JUMPI PUSH2 0xB5A PUSH2 0xAE8 JUMP JUMPDEST JUMPDEST PUSH0 PUSH2 0xB68 DUP5 DUP3 DUP6 ADD PUSH2 0xB32 JUMP JUMPDEST SWAP2 POP POP SWAP3 SWAP2 POP POP JUMP JUMPDEST PUSH0 DUP2 ISZERO ISZERO SWAP1 POP SWAP2 SWAP1 POP JUMP JUMPDEST PUSH2 0xB85 DUP2 PUSH2 0xB71 JUMP JUMPDEST DUP3 MSTORE POP POP JUMP JUMPDEST PUSH0 DUP2 SWAP1 POP SWAP2 SWAP1 POP JUMP JUMPDEST PUSH2 0xB9D DUP2 PUSH2 0xB8B JUMP JUMPDEST DUP3 MSTORE POP POP JUMP JUMPDEST PUSH0 PUSH1 0x60 DUP3 ADD SWAP1 POP PUSH2 0xBB6 PUSH0 DUP4 ADD DUP7 PUSH2 0xB7C JUMP JUMPDEST PUSH2 0xBC3 PUSH1 0x20 DUP4 ADD DUP6 PUSH2 0xB94 JUMP JUMPDEST PUSH2 0xBD0 PUSH1 0x40 DUP4 ADD DUP5 PUSH2 0xB94 JUMP JUMPDEST SWAP5 SWAP4 POP POP POP POP JUMP JUMPDEST PUSH2 0xBE1 DUP2 PUSH2 0xB8B JUMP JUMPDEST DUP2 EQ PUSH2 0xBEB JUMPI PUSH0 DUP1 REVERT JUMPDEST POP JUMP JUMPDEST PUSH0 DUP2 CALLDATALOAD SWAP1 POP PUSH2 0xBFC DUP2 PUSH2 0xBD8 JUMP JUMPDEST SWAP3 SWAP2 POP POP JUMP JUMPDEST PUSH0 PUSH1 0x20 DUP3 DUP5 SUB SLT ISZERO PUSH2 0xC17 JUMPI PUSH2 0xC16 PUSH2 0xAE8 JUMP JUMPDEST JUMPDEST PUSH0 PUSH2 0xC24 DUP5 DUP3 DUP6 ADD PUSH2 0xBEE JUMP JUMPDEST SWAP2 POP POP SWAP3 SWAP2 POP POP JUMP JUMPDEST PUSH2 0xC36 DUP2 PUSH2 0xB0B JUMP JUMPDEST DUP3 MSTORE POP POP JUMP JUMPDEST PUSH0 PUSH1 0x20 DUP3 ADD SWAP1 POP PUSH2 0xC4F PUSH0 DUP4 ADD DUP5 PUSH2 0xC2D JUMP JUMPDEST SWAP3 SWAP2 POP POP JUMP JUMPDEST PUSH0 DUP3 DUP3 MSTORE PUSH1 0x20 DUP3 ADD SWAP1 POP SWAP3 SWAP2 POP POP JUMP JUMPDEST PUSH32 0x437573746F6D6572206973206E6F742072656769737465726564000000000000 PUSH0 DUP3 ADD MSTORE POP JUMP JUMPDEST PUSH0 PUSH2 0xC99 PUSH1 0x1A DUP4 PUSH2 0xC55 JUMP JUMPDEST SWAP2 POP PUSH2 0xCA4 DUP3 PUSH2 0xC65 JUMP JUMPDEST PUSH1 0x20 DUP3 ADD SWAP1 POP SWAP2 SWAP1 POP JUMP JUMPDEST PUSH0 PUSH1 0x20 DUP3 ADD SWAP1 POP DUP2 DUP2 SUB PUSH0 DUP4 ADD MSTORE PUSH2 0xCC6 DUP2 PUSH2 0xC8D JUMP JUMPDEST SWAP1 POP SWAP2 SWAP1 POP JUMP JUMPDEST PUSH32 0x4465706F73697420616D6F756E74206D75737420626520677265617465722074 PUSH0 DUP3 ADD MSTORE PUSH32 0x68616E207A65726F000000000000000000000000000000000000000000000000 PUSH1 0x20 DUP3 ADD MSTORE POP JUMP JUMPDEST PUSH0 PUSH2 0xD27 PUSH1 0x28 DUP4 PUSH2 0xC55 JUMP JUMPDEST SWAP2 POP PUSH2 0xD32 DUP3 PUSH2 0xCCD JUMP JUMPDEST PUSH1 0x40 DUP3 ADD SWAP1 POP SWAP2 SWAP1 POP JUMP JUMPDEST PUSH0 PUSH1 0x20 DUP3 ADD SWAP1 POP DUP2 DUP2 SUB PUSH0 DUP4 ADD MSTORE PUSH2 0xD54 DUP2 PUSH2 0xD1B JUMP JUMPDEST SWAP1 POP SWAP2 SWAP1 POP JUMP JUMPDEST PUSH32 0x4E487B7100000000000000000000000000000000000000000000000000000000 PUSH0 MSTORE PUSH1 0x11 PUSH1 0x4 MSTORE PUSH1 0x24 PUSH0 REVERT JUMPDEST PUSH0 PUSH2 0xD92 DUP3 PUSH2 0xB8B JUMP JUMPDEST SWAP2 POP PUSH2 0xD9D DUP4 PUSH2 0xB8B JUMP JUMPDEST SWAP3 POP DUP3 DUP3 ADD SWAP1 POP DUP1 DUP3 GT ISZERO PUSH2 0xDB5 JUMPI PUSH2 0xDB4 PUSH2 0xD5B JUMP JUMPDEST JUMPDEST SWAP3 SWAP2 POP POP JUMP JUMPDEST PUSH0 PUSH1 0x20 DUP3 ADD SWAP1 POP PUSH2 0xDCE PUSH0 DUP4 ADD DUP5 PUSH2 0xB94 JUMP JUMPDEST SWAP3 SWAP2 POP POP JUMP JUMPDEST PUSH32 0x496E73756666696369656E742062616C616E6365000000000000000000000000 PUSH0 DUP3 ADD MSTORE POP JUMP JUMPDEST PUSH0 PUSH2 0xE08 PUSH1 0x14 DUP4 PUSH2 0xC55 JUMP JUMPDEST SWAP2 POP PUSH2 0xE13 DUP3 PUSH2 0xDD4 JUMP JUMPDEST PUSH1 0x20 DUP3 ADD SWAP1 POP SWAP2 SWAP1 POP JUMP JUMPDEST PUSH0 PUSH1 0x20 DUP3 ADD SWAP1 POP DUP2 DUP2 SUB PUSH0 DUP4 ADD MSTORE PUSH2 0xE35 DUP2 PUSH2 0xDFC JUMP JUMPDEST SWAP1 POP SWAP2 SWAP1 POP JUMP JUMPDEST PUSH0 PUSH2 0xE46 DUP3 PUSH2 0xB8B JUMP JUMPDEST SWAP2 POP PUSH2 0xE51 DUP4 PUSH2 0xB8B JUMP JUMPDEST SWAP3 POP DUP3 DUP3 SUB SWAP1 POP DUP2 DUP2 GT ISZERO PUSH2 0xE69 JUMPI PUSH2 0xE68 PUSH2 0xD5B JUMP JUMPDEST JUMPDEST SWAP3 SWAP2 POP POP JUMP JUMPDEST PUSH32 0x4F6E6C792061646D696E2063616E20706572666F726D20746869732061637469 PUSH0 DUP3 ADD MSTORE PUSH32 0x6F6E000000000000000000000000000000000000000000000000000000000000 PUSH1 0x20 DUP3 ADD MSTORE POP JUMP JUMPDEST PUSH0 PUSH2 0xEC9 PUSH1 0x22 DUP4 PUSH2 0xC55 JUMP JUMPDEST SWAP2 POP PUSH2 0xED4 DUP3 PUSH2 0xE6F JUMP JUMPDEST PUSH1 0x40 DUP3 ADD SWAP1 POP SWAP2 SWAP1 POP JUMP JUMPDEST PUSH0 PUSH1 0x20 DUP3 ADD SWAP1 POP DUP2 DUP2 SUB PUSH0 DUP4 ADD MSTORE PUSH2 0xEF6 DUP2 PUSH2 0xEBD JUMP JUMPDEST SWAP1 POP SWAP2 SWAP1 POP JUMP JUMPDEST PUSH32 0x437573746F6D657220616C726561647920726567697374657265640000000000 PUSH0 DUP3 ADD MSTORE POP JUMP JUMPDEST PUSH0 PUSH2 0xF31 PUSH1 0x1B DUP4 PUSH2 0xC55 JUMP JUMPDEST SWAP2 POP PUSH2 0xF3C DUP3 PUSH2 0xEFD JUMP JUMPDEST PUSH1 0x20 DUP3 ADD SWAP1 POP SWAP2 SWAP1 POP JUMP JUMPDEST PUSH0 PUSH1 0x20 DUP3 ADD SWAP1 POP DUP2 DUP2 SUB PUSH0 DUP4 ADD MSTORE PUSH2 0xF5E DUP2 PUSH2 0xF25 JUMP JUMPDEST SWAP1 POP SWAP2 SWAP1 POP JUMP JUMPDEST PUSH32 0x4C6F616E20616D6F756E74206D7573742062652067726561746572207468616E PUSH0 DUP3 ADD MSTORE PUSH32 0x207A65726F000000000000000000000000000000000000000000000000000000 PUSH1 0x20 DUP3 ADD MSTORE POP JUMP JUMPDEST PUSH0 PUSH2 0xFBF PUSH1 0x25 DUP4 PUSH2 0xC55 JUMP JUMPDEST SWAP2 POP PUSH2 0xFCA DUP3 PUSH2 0xF65 JUMP JUMPDEST PUSH1 0x40 DUP3 ADD SWAP1 POP SWAP2 SWAP1 POP JUMP JUMPDEST PUSH0 PUSH1 0x20 DUP3 ADD SWAP1 POP DUP2 DUP2 SUB PUSH0 DUP4 ADD MSTORE PUSH2 0xFEC DUP2 PUSH2 0xFB3 JUMP JUMPDEST SWAP1 POP SWAP2 SWAP1 POP JUMP JUMPDEST PUSH32 0x4E6F206C6F616E20726571756573746564000000000000000000000000000000 PUSH0 DUP3 ADD MSTORE POP JUMP JUMPDEST PUSH0 PUSH2 0x1027 PUSH1 0x11 DUP4 PUSH2 0xC55 JUMP JUMPDEST SWAP2 POP PUSH2 0x1032 DUP3 PUSH2 0xFF3 JUMP JUMPDEST PUSH1 0x20 DUP3 ADD SWAP1 POP SWAP2 SWAP1 POP JUMP JUMPDEST PUSH0 PUSH1 0x20 DUP3 ADD SWAP1 POP DUP2 DUP2 SUB PUSH0 DUP4 ADD MSTORE PUSH2 0x1054 DUP2 PUSH2 0x101B JUMP JUMPDEST SWAP1 POP SWAP2 SWAP1 POP JUMP INVALID LOG2 PUSH5 0x6970667358 0x22 SLT KECCAK256 SELFDESTRUCT SWAP1 DUP12 0xC8 PUSH18 0x87F37AFA3BB8968C544547D3339B950EE0C7 0xC7 0xDD 0xEB BLOBBASEFEE GASPRICE ADDMOD PUSH1 0x1E 0x2C PUSH5 0x736F6C6343 STOP ADDMOD NOT STOP CALLER "
				},
				"gasEstimates": {
					"creation": {
						"codeDepositCost": "848200",
						"executionCost": "25146",
						"totalCost": "873346"
					},
					"external": {
						"admin()": "2571",
						"approveLoan(address)": "infinite",
						"customers(address)": "infinite",
						"depositMoney()": "infinite",
						"registerCustomer(address)": "40524",
						"requestLoan(uint256)": "infinite",
						"withdrawMoney(uint256)": "infinite"
					}
				},
				"methodIdentifiers": {
					"admin()": "f851a440",
					"approveLoan(address)": "ac640361",
					"customers(address)": "336989ae",
					"depositMoney()": "16c05aa2",
					"registerCustomer(address)": "7520320f",
					"requestLoan(uint256)": "8d5d3429",
					"withdrawMoney(uint256)": "54876921"
				}
			},
			"storageLayout": {
				"storage": [
					{
						"astId": 3,
						"contract": "contracts/SimpleBank.sol:SimpleBank",
						"label": "admin",
						"offset": 0,
						"slot": "0",
						"type": "t_address"
					},
					{
						"astId": 15,
						"contract": "contracts/SimpleBank.sol:SimpleBank",
						"label": "customers",
						"offset": 0,
						"slot": "1",
						"type": "t_mapping(t_address,t_struct(Customer)10_storage)"
					}
				],
				"types": {
					"t_address": {
						"encoding": "inplace",
						"label": "address",
						"numberOfBytes": "20"
					},
					"t_bool": {
						"encoding": "inplace",
						"label": "bool",
						"numberOfBytes": "1"
					},
					"t_mapping(t_address,t_struct(Customer)10_storage)": {
						"encoding": "mapping",
						"key": "t_address",
						"label": "mapping(address => struct SimpleBank.Customer)",
						"numberOfBytes": "32",
						"value": "t_struct(Customer)10_storage"
					},
					"t_struct(Customer)10_storage": {
						"encoding": "inplace",
						"label": "struct SimpleBank.Customer",
						"members": [
							{
								"astId": 5,
								"contract": "contracts/SimpleBank.sol:SimpleBank",
								"label": "isRegistered",
								"offset": 0,
								"slot": "0",
								"type": "t_bool"
							},
							{
								"astId": 7,
								"contract": "contracts/SimpleBank.sol:SimpleBank",
								"label": "balance",
								"offset": 0,
								"slot": "1",
								"type": "t_uint256"
							},
							{
								"astId": 9,
								"contract": "contracts/SimpleBank.sol:SimpleBank",
								"label": "loanAmount",
								"offset": 0,
								"slot": "2",
								"type": "t_uint256"
							}
						],
						"numberOfBytes": "96"
					},
					"t_uint256": {
						"encoding": "inplace",
						"label": "uint256",
						"numberOfBytes": "32"
					}
				}
			},
			"userdoc": {
				"kind": "user",
				"methods": {},
				"version": 1
			}
		}
	}
}